:100000000C942A000C9447000C9447000C94470071
:100010000C9447000C9447000C9447000C94470044
:100020000C9447000C9447000C94AB050C94DE052F
:100030000C9447000C9447000C9447000C94470024
:100040000C94ED010C9447000C9447000C9447006D
:100050000C94470011241FBECFE5D8E0DEBFCDBF12
:1000600010E0A0E6B0E0EAE6FFE002C005900D92E5
:10007000A236B107D9F710E0A2E6B0E001C01D92A8
:10008000A137B107E1F70E94E8060C94B3070C947E
:100090000000DF93CF93CDB7DEB7A7E2B0E0E7E291
:1000A000F0E0808180648C93A7E2B0E0E7E2F0E0CA
:1000B00080818F778C93A7E2B0E0E7E2F0E0808167
:1000C00080628C93A6E2B0E0E6E2F0E08081887F77
:1000D0008C93A6E2B0E0E6E2F0E0808187608C934A
:1000E000A6E2B0E0E6E2F0E080818F7D8C93A6E2AC
:1000F000B0E0E6E2F0E0808180688C93CF91DF9100
:100100000895DF93CF93CDB7DEB728970FB6F89455
:10011000DEBF0FBECDBF8E8378876F831D828F8138
:100120009885009709F46AC080916200882309F0DD
:1001300062C081E08093620019821A821B821C8255
:10014000A7E2B0E0E7E2F0E08081807E8C93A7E256
:10015000B0E0E7E2F0E090818E81892B8C93A6E2FB
:10016000B0E0E6E2F0E0808180648C930BC089818E
:100170009A81AB81BC810196A11DB11D89839A83AF
:10018000AB83BC83E6E2F0E0808182958F70882F9C
:1001900090E081709070009761F489819A81AB81C1
:1001A000BC81803523EC920720E0A20720E0B20753
:1001B000F0F289819A81AB81BC81803523EC920772
:1001C00020E0A20720E0B20719F483E08D8318C075
:1001D00010926200A6E2B0E0E6E2F0E08081806189
:1001E0008C93E5E2F0E08081882F90E0EF81F88544
:1001F0009183808305C084E08D8302C082E08D837B
:100200008D8128960FB6F894DEBF0FBECDBFCF917B
:10021000DF910895DF93CF9300D000D000D0CDB709
:10022000DEB78A837C836B835E834D8319828B81E7
:100230009C81009721F08D819E81009719F482E0C6
:10024000898336C080916200882381F581E08093A4
:100250006A0081E0809362008B819C8190936C00A6
:1002600080936B008D819E819093690080936800DC
:10027000A7E2B0E0E7E2F0E08081807E8C93A7E225
:10028000B0E0E7E2F0E090818A81892B8C93A6E2CE
:10029000B0E0E6E2F0E0808188608C93A6E2B0E016
:1002A000E6E2F0E0808180648C9302C084E0898380
:1002B000898126960FB6F894DEBF0FBECDBFCF91D1
:1002C000DF910895DF93CF9300D00F92CDB7DEB7C3
:1002D0009B838A8319828A819B81009719F482E02B
:1002E000898309C0E5E2F0E08081882F90E0EA810F
:1002F000FB819183808389810F900F900F90CF9124
:10030000DF910895DF93CF9300D00F92CDB7DEB782
:100310009B838A8319828A819B81009719F482E0EA
:10032000898354C082E080936A00809162008130AA
:1003300019F481E089834AC081E080936200EA81F8
:10034000FB81808191819093660080936500EA81B2
:10035000FB81848180936D00EA81FB81828193819E
:100360009093640080936300EA81FB81858196818C
:10037000909369008093680010926700A7E2B0E054
:10038000E7E2F0E08081807E8C93A7E2B0E0E7E2D4
:10039000F0E0408120916500309166008091670017
:1003A000882F90E0F901E80FF91F8081842B8C934E
:1003B000A6E2B0E0E6E2F0E0808188608C93A6E2FD
:1003C000B0E0E6E2F0E0808180648C9389810F9058
:1003D0000F900F90CF91DF9108951F920F920FB65B
:1003E0000F9211242F933F934F935F936F937F93BB
:1003F0008F939F93AF93BF93EF93FF93DF93CF932D
:10040000CDB7DEB780916A008130D1F410926200DE
:10041000A0916B00B0916C00E5E2F0E08081882F44
:1004200090E08D939C93E0916800F09169000995AC
:10043000A6E2B0E0E6E2F0E08081877F8C935BC0CB
:1004400080916A00823009F056C02091630030919B
:10045000640080916700882F90E0880F991FD90170
:10046000A80FB91FE5E2F0E08081882F90E0119697
:100470009C938E93809167008F5F8093670090912B
:10048000670080916D00981779F410926200E091F6
:100490006800F09169000995A6E2B0E0E6E2F0E0BC
:1004A0008081877F8C9327C09091670080916D0039
:1004B000981708F5A7E2B0E0E7E2F0E08081807EDF
:1004C0008C93A7E2B0E0E7E2F0E040812091650084
:1004D0003091660080916700882F90E0F901E80F65
:1004E000F91F8081842B8C93A6E2B0E0E6E2F0E075
:1004F000808180648C93CF91DF91FF91EF91BF91C8
:10050000AF919F918F917F916F915F914F913F91AB
:100510002F910F900FBE0F901F901895DF93CF93E0
:10052000CDB7DEB728970FB6F894DEBF0FBECDBFAC
:100530008A836B834C8319828B81883008F0EDC0ED
:100540008C81882309F472C08A81282F30E0388793
:100550002F838F8198858130910549F12F813885CE
:10056000223031052CF48F819885009761F05BC0B3
:100570002F8138852230310571F18F819885833044
:100580009105E9F150C0ABE3B0E0EBE3F0E080812E
:10059000482F8B81282F30E081E090E0022E02C0AE
:1005A000880F991F0A94E2F7842B8C93B8C0A8E3B4
:1005B000B0E0E8E3F0E08081482F8B81282F30E025
:1005C00081E090E0022E02C0880F991F0A94E2F7A2
:1005D000842B8C93A4C0A5E3B0E0E5E3F0E0808138
:1005E000482F8B81282F30E081E090E0022E02C05E
:1005F000880F991F0A94E2F7842B8C9390C0A2E392
:10060000B0E0E2E3F0E08081482F8B81282F30E0DA
:1006100081E090E0022E02C0880F991F0A94E2F751
:10062000842B8C937CC081E0898379C08A81282FB8
:1006300030E03E832D838D819E818130910559F17B
:100640002D813E81223031052CF48D819E810097D1
:1006500069F060C02D813E812230310589F18D81A4
:100660009E818330910509F440C054C0ABE3B0E0F3
:10067000EBE3F0E08081482F8B81282F30E081E090
:1006800090E0022E02C0880F991F0A94E2F780952D
:1006900084238C9344C0A8E3B0E0E8E3F0E08081D9
:1006A000482F8B81282F30E081E090E0022E02C09D
:1006B000880F991F0A94E2F7809584238C932FC0AA
:1006C000A5E3B0E0E5E3F0E08081482F8B81282F9F
:1006D00030E081E090E0022E02C0880F991F0A945A
:1006E000E2F7809584238C931AC0A2E3B0E0E2E3A2
:1006F000F0E08081482F8B81282F30E081E090E06E
:10070000022E02C0880F991F0A94E2F78095842375
:100710008C9305C081E0898302C081E0898389814F
:1007200028960FB6F894DEBF0FBECDBFCF91DF91F4
:100730000895DF93CF9300D000D00F92CDB7DEB7EE
:100740008A836B8319828A81282F30E03D832C8332
:100750008C819D8181309105D1F02C813D812230A9
:1007600031052CF48C819D81009761F01FC02C8194
:100770003D812230310581F08C819D81833091054E
:1007800081F014C0EBE3F0E08B81808311C0E8E3DB
:10079000F0E08B8180830CC0E5E3F0E08B81808307
:1007A00007C0E2E3F0E08B81808302C081E08983AF
:1007B00089810F900F900F900F900F90CF91DF9144
:1007C0000895DF93CF93CDB7DEB727970FB6F89490
:1007D000DEBF0FBECDBF8A836B835D834C831982DE
:1007E0008C819D81009709F478C08B81883008F056
:1007F00074C08A81282F30E03F832E834E815F8131
:100800004130510559F18E819F818230910534F438
:100810002E813F812115310569F05CC04E815F81D9
:100820004230510579F18E819F818330910509F421
:100830003DC050C0E9E3F0E08081282F30E08B819B
:10084000882F90E0A90102C0559547958A95E2F757
:10085000CA018170EC81FD81808341C0E6E3F0E054
:100860008081282F30E08B81882F90E0A90102C081
:10087000559547958A95E2F7CA018170EC81FD8113
:1008800080832DC0E3E3F0E08081282F30E08B816E
:10089000882F90E0A90102C0559547958A95E2F707
:1008A000CA018170EC81FD81808319C0E0E3F0E032
:1008B0008081282F30E08B81882F90E0A90102C031
:1008C000559547958A95E2F7CA018170EC81FD81C3
:1008D000808305C081E0898302C081E089838981AA
:1008E00027960FB6F894DEBF0FBECDBFCF91DF9134
:1008F0000895DF93CF9300D000D000D0CDB7DEB7FE
:100900008A837C836B8319828A81282F30E03E831F
:100910002D838D819E8181309105E1F02D813E8175
:10092000223031052CF48D819E81009761F027C023
:100930002D813E8122303105A1F08D819E81833051
:100940009105B1F01CC0E9E3F0E08081EB81FC810E
:10095000808317C0E6E3F0E08081EB81FC81808337
:1009600010C0E3E3F0E08081EB81FC81808309C06B
:10097000E0E3F0E08081EB81FC81808302C081E0D4
:100980008983898126960FB6F894DEBF0FBECDBF4E
:10099000CF91DF910895DF93CF93CDB7DEB7AFE569
:1009A000B0E0EFE5F0E0808180688C93CF91DF913B
:1009B0000895DF93CF93CDB7DEB7AFE5B0E0EFE5B5
:1009C000F0E080818F778C93CF91DF910895DF9352
:1009D000CF93CDB7DEB7EAE3F0E080EF8083E7E3C3
:1009E000F0E08FEF8083E4E3F0E087E08083E1E3F1
:1009F000F0E083EF8083EBE3F0E08FEF8083E8E3C8
:100A0000F0E01082E5E3F0E01082E2E3F0E08CE059
:100A10008083CF91DF910895DF93CF93CDB7DEB779
:100A2000A3E5B0E0E3E5F0E080818F7C8C93A3E563
:100A3000B0E0E3E5F0E0808180628C93CF91DF91BC
:100A40000895DF93CF93CDB7DEB727970FB6F8940D
:100A5000DEBF0FBECDBF8A834B835C836D837E83F5
:100A6000198280916000882319F484E0898314C07E
:100A700010926000A3E5B0E0E3E5F0E08081887FBC
:100A80008C93A3E5B0E0E3E5F0E080818C9381E016
:100A90008093600089818F838F8127960FB6F894A9
:100AA000DEBF0FBECDBFCF91DF910895DF93CF930F
:100AB0000F92CDB7DEB78983A3E5B0E0E3E5F0E0C0
:100AC000808188608C93A3E5B0E0E3E5F0E080816D
:100AD00080648C93ECE5F0E089818083A3E5B0E04D
:100AE000E3E5F0E080818F7C8C93A3E5B0E0E3E563
:100AF000F0E0808180628C93A3E5B0E0E3E5F0E074
:100B00008081887F8C93A3E5B0E0E3E5F0E080810D
:100B100084608C930F90CF91DF910895DF93CF93F2
:100B200000D00F92CDB7DEB79B838A8319828A816A
:100B30009B81009739F08A819B8190936F0080930D
:100B40006E0002C082E0898389810F900F900F9020
:100B5000CF91DF9108951F920F920FB60F9211243B
:100B60002F933F934F935F936F937F938F939F93B5
:100B7000AF93BF93EF93FF93DF93CF93CDB7DEB7E0
:100B800080916E0090916F00009729F0E0916E00C7
:100B9000F0916F000995CF91DF91FF91EF91BF9197
:100BA000AF919F918F917F916F915F914F913F9105
:100BB0002F910F900FBE0F901F9018951F920F92BC
:100BC0000FB60F9211242F933F934F935F936F9320
:100BD0007F938F939F93AF93BF93EF93FF93DF9395
:100BE000CF93CDB7DEB780916E0090916F000097E4
:100BF00029F0E0916E00F0916F000995CF91DF919F
:100C0000FF91EF91BF91AF919F918F917F916F91E4
:100C10005F914F913F912F910F900FBE0F901F90BA
:100C20001895DF93CF930F92CDB7DEB789830F90DE
:100C3000CF91DF910895DF93CF9300D0CDB7DEB78A
:100C40009A838983AFE4B0E0EFE4F0E080818068CC
:100C50008C93AFE4B0E0EFE4F0E080818F7B8C9385
:100C6000AFE4B0E0EFE4F0E0808182608C93AEE42A
:100C7000B0E0EEE4F0E0808188608C93AEE4B0E018
:100C8000EEE4F0E0808180618C93AFE4B0E0EFE4CB
:100C9000F0E080818E7F8C93E6E4F0E089819A8198
:100CA00091838083AEE4B0E0EEE4F0E08081887F61
:100CB0008C93AEE4B0E0EEE4F0E0808183608C934E
:100CC0000F900F90CF91DF910895DF93CF9300D0D5
:100CD000CDB7DEB79A838983EAE4F0E089819A810F
:100CE000918380830F900F90CF91DF910895AF9201
:100CF000BF92CF92DF92EF92FF920F931F93DF93F9
:100D0000CF93CDB7DEB760970FB6F894DEBF0FBEB6
:100D1000CDBF69837A838B839C832D833E834F83EE
:100D20005887E986FA860B871C87AD86BE86CF86F4
:100D3000D88A2D8D3E8D4F8D58A189819A81AB81A6
:100D4000BC8179018A01E81AF90A0A0B1B0B298573
:100D50003A854B855C858D859E85AF85B889281B36
:100D6000390B4A0B5B0BC801B7010E9457077B0187
:100D70008C012D813E814F81588589819A81AB817B
:100D8000BC81281B390B4A0B5B0BC801B7010E94C1
:100D90007607DA01C9019C01AD018D859E85AF857D
:100DA000B889820F931FA41FB51FBC01CD016096A7
:100DB0000FB6F894DEBF0FBECDBFCF91DF911F916C
:100DC0000F91FF90EF90DF90CF90BF90AF9008957C
:100DD000DF93CF93CDB7DEB70E94E7040E94CB0428
:100DE0000E94490086EA9EE00E941B0620E730E050
:100DF0004FEF56E080E0B9010E940A01F7CFAF92B1
:100E0000BF92CF92DF92EF92FF920F931F93DF93E7
:100E1000CF9300D000D0CDB7DEB780917000882F7F
:100E200090E0A0E0B0E000D000D0EDB7FEB7319682
:100E300080839183A283B38360E070E080E090E0E0
:100E40002FEF30E040E050E00F2EF5EDEF2EF1E017
:100E5000FF2EF0E00F2FF0E01F2FF02D0F2EFEE5FC
:100E6000AF2EF0E0BF2EF0E0CF2EF0E0DF2EF02D21
:100E70000E9477060F900F900F900F90DC01CB012E
:100E800089839A83AB83BC8389819A810E9465069A
:100E90000F900F900F900F90CF91DF911F910F91B6
:100EA000FF90EF90DF90CF90BF90AF900895629F3A
:100EB000D001739FF001829FE00DF11D649FE00D52
:100EC000F11D929FF00D839FF00D749FF00D659FB3
:100ED000F00D9927729FB00DE11DF91F639FB00DB2
:100EE000E11DF91FBD01CF011124089597FB092EC3
:100EF00005260ED057FD04D014D00AD0001C38F4BB
:100F000050954095309521953F4F4F4F5F4F089535
:100F1000F6F790958095709561957F4F8F4F9F4F15
:100F20000895A1E21A2EAA1BBB1BFD010DC0AA1F2A
:100F3000BB1FEE1FFF1FA217B307E407F50720F042
:100F4000A21BB30BE40BF50B661F771F881F991FBD
:100F50001A9469F760957095809590959B01AC0106
:0A0F6000BD01CF010895F894FFCF02
:020F6A00010084
:00000001FF
