:100000000C942A000C9434000C9434000C943400AA
:100010000C9434000C9434000C9434000C94340090
:100020000C9434000C9434000C9434000C94340080
:100030000C9434000C9434000C9434000C94340070
:100040000C9434000C9434000C9434000C94340060
:100050000C94340011241FBECFE5D8E0DEBFCDBF25
:100060000E947C040C94B0040C940000DF93CF93A6
:10007000CDB7DEB728970FB6F894DEBF0FBECDBF61
:1000800089836A834B838981843008F0F4C08A8134
:10009000883008F0F0C08B81882309F074C0898112
:1000A000282F30E038872F838F8198858130910504
:1000B00059F12F813885223031052CF48F819885B4
:1000C000009769F0D5C02F8138852230310589F13C
:1000D0008F8198858330910509F440C0C9C0AAE397
:1000E000B0E0EAE3F0E08081482F8A81282F30E0F9
:1000F00081E090E0022E02C0880F991F0A94E2F777
:10010000809584238C93B4C0A7E3B0E0E7E3F0E0EC
:100110008081482F8A81282F30E081E090E0022EF4
:1001200002C0880F991F0A94E2F7809584238C936C
:100130009FC0A4E3B0E0E4E3F0E08081482F8A812F
:10014000282F30E081E090E0022E02C0880F991F36
:100150000A94E2F7809584238C938AC0A1E3B0E0EF
:10016000E1E3F0E08081482F8A81282F30E081E0B0
:1001700090E0022E02C0880F991F0A94E2F7809542
:1001800084238C9375C08B81813009F06FC0898185
:10019000282F30E03E832D838D819E818130910513
:1001A00049F12D813E81223031052CF48D819E81D3
:1001B000009761F05DC02D813E812230310571F1E3
:1001C0008D819E8183309105E9F152C0AAE3B0E0B0
:1001D000EAE3F0E08081482F8A81282F30E081E037
:1001E00090E0022E02C0880F991F0A94E2F7842B38
:1001F0008C933EC0A7E3B0E0E7E3F0E08081482FB6
:100200008A81282F30E081E090E0022E02C0880F22
:10021000991F0A94E2F7842B8C932AC0A4E3B0E0E0
:10022000E4E3F0E08081482F8A81282F30E081E0EC
:1002300090E0022E02C0880F991F0A94E2F7842BE7
:100240008C9316C0A1E3B0E0E1E3F0E08081482F99
:100250008A81282F30E081E090E0022E02C0880FD2
:10026000991F0A94E2F7842B8C9302C01C8204C06D
:1002700091E09C8301C01C828C8128960FB6F89473
:10028000DEBF0FBECDBFCF91DF910895DF93CF9337
:10029000CDB7DEB72F970FB6F894DEBF0FBECDBF38
:1002A00089876A878985843008F033C18A858823E5
:1002B00009F095C08985282F30E03F872E878E85ED
:1002C0009F8581309105A1F12E853F852230310532
:1002D0002CF48E859F85009771F018C12E853F857F
:1002E0002230310509F441C08E859F858330910508
:1002F00009F458C00BC1188617C0AAE3B0E0EAE3BE
:10030000F0E08081482F8885282F30E081E090E060
:10031000022E02C0880F991F0A94E2F78095842369
:100320008C9388858F5F88878885883030F3EEC00E
:100330001F8217C0A7E3B0E0E7E3F0E08081482F19
:100340008F81282F30E081E090E0022E02C0880FDC
:10035000991F0A94E2F7809584238C938F818F5F95
:100360008F838F81883030F3D1C01E8217C0A4E301
:10037000B0E0E4E3F0E08081482F8E81282F30E068
:1003800081E090E0022E02C0880F991F0A94E2F7E4
:10039000809584238C938E818F5F8E838E818830AD
:1003A00030F3B4C01D8217C0A1E3B0E0E1E3F0E098
:1003B0008081482F8D81282F30E081E090E0022E4F
:1003C00002C0880F991F0A94E2F7809584238C93CA
:1003D0008D818F5F8D838D81883030F397C08A85C2
:1003E000813009F091C08985282F30E03D872C8726
:1003F0008C859D858130910599F12C853D85223034
:1004000031052CF48C859D85009771F07FC02C857B
:100410003D852230310509F43FC08C859D858330B0
:10042000910509F455C072C01C8216C0AAE3B0E061
:10043000EAE3F0E08081482F8C81282F30E081E0D2
:1004400090E0022E02C0880F991F0A94E2F7842BD5
:100450008C938C818F5F8C838C81883038F356C06D
:100460001B8216C0A7E3B0E0E7E3F0E08081482FED
:100470008B81282F30E081E090E0022E02C0880FAF
:10048000991F0A94E2F7842B8C938B818F5F8B8367
:100490008B81883038F33AC01A8216C0A4E3B0E0EA
:1004A000E4E3F0E08081482F8A81282F30E081E06A
:1004B00090E0022E02C0880F991F0A94E2F7842B65
:1004C0008C938A818F5F8A838A81883038F31EC03B
:1004D000198216C0A1E3B0E0E1E3F0E08081482F8B
:1004E0008981282F30E081E090E0022E02C0880F41
:1004F000991F0A94E2F7842B8C9389818F5F8983FB
:100500008981883038F302C01B8604C091E09B8744
:1005100001C01B868B852F960FB6F894DEBF0FBEE9
:10052000CDBFCF91DF910895DF93CF93CDB7DEB7E5
:1005300028970FB6F894DEBF0FBECDBF89836A83BC
:100540004B838981843008F0EDC08A81883008F0BF
:10055000E9C08B81882309F46FC08981282F30E09E
:1005600038872F838F8198858130910549F12F81BC
:100570003885223031052CF48F819885009761F001
:10058000CEC02F8138852230310571F18F81988559
:1005900083309105E9F1C3C0ABE3B0E0EBE3F0E0F9
:1005A0008081482F8A81282F30E081E090E0022E60
:1005B00002C0880F991F0A94E2F7842B8C93AFC076
:1005C000A8E3B0E0E8E3F0E08081482F8A81282F9B
:1005D00030E081E090E0022E02C0880F991F0A945B
:1005E000E2F7842B8C939BC0A5E3B0E0E5E3F0E059
:1005F0008081482F8A81282F30E081E090E0022E10
:1006000002C0880F991F0A94E2F7842B8C9387C04D
:10061000A2E3B0E0E2E3F0E08081482F8A81282F56
:1006200030E081E090E0022E02C0880F991F0A940A
:10063000E2F7842B8C9373C08981282F30E03E83AE
:100640002D838D819E818130910559F12D813E81CF
:10065000223031052CF48D819E81009769F05FC0B6
:100660002D813E812230310589F18D819E8183303B
:10067000910509F440C053C0ABE3B0E0EBE3F0E018
:100680008081482F8A81282F30E081E090E0022E7F
:1006900002C0880F991F0A94E2F7809584238C93F7
:1006A0003EC0A8E3B0E0E8E3F0E08081482F8A8113
:1006B000282F30E081E090E0022E02C0880F991FC1
:1006C0000A94E2F7809584238C9329C0A5E3B0E0D7
:1006D000E5E3F0E08081482F8A81282F30E081E037
:1006E00090E0022E02C0880F991F0A94E2F78095CD
:1006F00084238C9314C0A2E3B0E0E2E3F0E08081B5
:10070000482F8A81282F30E081E090E0022E02C03D
:10071000880F991F0A94E2F7809584238C9391E0C7
:100720009C8301C01C828C8128960FB6F894DEBF92
:100730000FBECDBFCF91DF910895DF93CF9300D04F
:1007400000D00F92CDB7DEB789836A838981843068
:10075000A8F58981282F30E03D832C838C819D81F1
:1007600081309105D1F02C813D81223031052CF46E
:100770008C819D81009761F01EC02C813D812230CB
:10078000310581F08C819D818330910581F013C00A
:10079000EBE3F0E08A8180830EC0E8E3F0E08A8139
:1007A000808309C0E5E3F0E08A81808304C0E2E34E
:1007B000F0E08A81808391E09B8301C01B828B8162
:1007C0000F900F900F900F900F90CF91DF910895A1
:1007D000DF93CF93CDB7DEB727970FB6F894DEBF80
:1007E0000FBECDBF89836A835C834B83898184304C
:1007F00008F077C08A81883008F073C08981282F7B
:1008000030E03F832E834E815F814130510559F1A5
:100810008E819F818230910534F42E813F81211594
:10082000310569F05BC04E815F814230510579F13D
:100830008E819F818330910509F43DC04FC0E9E36B
:10084000F0E08081282F30E08A81882F90E0A90194
:1008500002C0559547958A95E2F7CA018170EB81F0
:10086000FC8180833BC0E6E3F0E08081282F30E00C
:100870008A81882F90E0A90102C0559547958A95F5
:10088000E2F7CA018170EB81FC81808327C0E3E33A
:10089000F0E08081282F30E08A81882F90E0A90144
:1008A00002C0559547958A95E2F7CA018170EB81A0
:1008B000FC81808313C0E0E3F0E08081282F30E0EA
:1008C0008A81882F90E0A90102C0559547958A95A5
:1008D000E2F7CA018170EB81FC81808351E05D8386
:1008E00001C01D828D8127960FB6F894DEBF0FBE22
:1008F000CDBFCF91DF910895DF93CF930F92CDB706
:10090000DEB780E061E00E944601EAE3F0E08FEFAD
:10091000808382E063E041E00E94360082E064E090
:1009200041E00E94360082E067E040E00E9436002D
:1009300082E067E041E00E94940282E067E09E016D
:100940002F5F3F4FA9010E94E803998182E064E094
:10095000492F0E94940280E060EA0E949D03EDCF3F
:04096000F894FFCF39
:00000001FF
