:100000000C942A000C9447000C9447000C94470071
:100010000C9447000C9447000C9447000C94470044
:100020000C9447000C9447000C9447000C94470034
:100030000C9447000C9447000C9447000C94470024
:100040000C94B9060C9447000C9447000C9447009C
:100050000C94470011241FBECFE5D8E0DEBFCDBF12
:1000600010E0A8E6B0E001C01D92A037B107E1F7AB
:1000700010E0A0E6B0E0E2ECFEE102C005900D92D7
:10008000A836B107D9F70E94C60D0C945F0F0C94E7
:100090000000EF92FF920F931F937B018C0120E0F1
:1000A00030E040E05FE40E94490388238CF0C801FF
:1000B000B70120E030E040E05FE40E94C1010E940F
:1000C000A9039B01AC01205030404040504806C07D
:1000D000C801B7010E94A9039B01AC01B901CA0183
:1000E0001F910F91FF90EF900895A0E0B0E0EBE733
:1000F000F0E00C94280FDC012B01FA019C91923066
:1001000008F439C1EB018881823008F433C194309E
:1001100069F4843009F02FC111969C91119789815F
:10012000981709F428C1A0E6B0E025C1843009F48D
:1001300021C18230A9F4923009F01DC19A01AD01AC
:1001400088E0EA010990AE01E90109929E0181501F
:10015000C1F7E201898111969C918923818308C1AD
:10016000923009F407C112962D903C901397EB0141
:100170008A819B811496AD90BD90CD90DC901797AD
:10018000EC80FD800E811F819101281B390BB90184
:1001900037FF04C066277727621B730B6032710537
:1001A0000CF061C0121613066CF537014801062EDB
:1001B00004C096948794779467940A94D2F721E0C8
:1001C00030E040E050E004C0220F331F441F551FB1
:1001D0006A95D2F721503040404050402E213F21B7
:1001E00040235123211531054105510521F021E01E
:1001F00030E040E050E079018A01E628F72808293C
:1002000019293CC0232BD1F1260E371E350146019A
:10021000062E04C096948794779467940A94D2F734
:1002200021E030E040E050E004C0220F331F441FC3
:10023000551F6A95D2F721503040404050402A2146
:100240003B214C215D21211531054105510521F04E
:1002500021E030E040E050E059016A01A628B728CB
:10026000C828D9280BC0821593052CF01C01AA249C
:10027000BB24650103C0EE24FF24870111969C91E5
:10028000D20111968C91981709F445C0992339F041
:10029000A80197012A193B094C095D0906C0A6016E
:1002A00095012E193F09400B510B57FD08C01182D3
:1002B0003382228224833583468357831DC081E0A5
:1002C00081833382228288279927DC01821B930B4A
:1002D000A40BB50B84839583A683B7830DC0220F2F
:1002E000331F441F551F24833583468357838281E0
:1002F000938101979383828324813581468157813D
:10030000DA01C9010197A109B1098F5F9F4FAF4F72
:10031000BF4328F30BC0918333822282EA0CFB1C7B
:100320000C1D1D1DE482F5820683178383E0808304
:10033000248135814681578157FF1AC0C901AA27F8
:1003400097FDA095BA2F81709070A070B0705695EF
:10035000479537952795822B932BA42BB52B848318
:100360009583A683B7838281938101969383828349
:10037000DF0101C0D201CD01CDB7DEB7E2E10C94BF
:10038000440FA0E2B0E0E7ECF1E00C94340F698395
:100390007A838B839C832D833E834F835887E9E048
:1003A000EE2EF12CEC0EFD1ECE010196B7010E943F
:1003B000D2048E010F5E1F4FCE010596B8010E9438
:1003C000D2048A8991E089278A8BC701B801AE01DE
:1003D000475E5F4F0E9475000E94FD03A096E6E015
:1003E0000C94500FA0E2B0E0E8EFF1E00C94340F71
:1003F00069837A838B839C832D833E834F835887C5
:10040000F9E0EF2EF12CEC0EFD1ECE010196B701A6
:100410000E94D2048E010F5E1F4FCE010596B801D7
:100420000E94D204C701B801AE01475E5F4F0E942F
:1004300075000E94FD03A096E6E00C94500FA0E228
:10044000B0E0E5E2F2E00C94280F69837A838B83B5
:100450009C832D833E834F835887CE010196BE0136
:10046000675F7F4F0E94D204CE010596BE016F5E8A
:100470007F4F0E94D2049985923088F0898982301A
:10048000C8F0943019F4823051F404C0843029F457
:10049000923081F480E690E0C6C0923049F420E0CA
:1004A0009A858A89981321E02A87CE010996BBC0D4
:1004B000823049F420E09A858A89981321E02A8BBA
:1004C000CE014196B0C02D843E844F8458886D88FB
:1004D0007E888F88988CEE24FF248701AA24BB2471
:1004E000650140E050E060E070E0E0E0F0E0C10174
:1004F00081709070892BE9F0E60CF71C081D191D1E
:100500009A01AB012A0D3B1D4C1D5D1D80E090E062
:10051000A0E0B0E0E614F7040805190520F481E036
:1005200090E0A0E0B0E0BA01A901480F591F6A1F8E
:100530007B1FAA0CBB1CCC1CDD1C97FE08C081E0F5
:1005400090E0A0E0B0E0A82AB92ACA2ADB2A3196B6
:10055000E032F10549F0660C771C881C991C569412
:10056000479437942794C3CFFA85EA892B893C892D
:100570008B859C85280F391F2E5F3F4F17C0CA01FE
:1005800081709070892B61F016950795F794E79428
:1005900080E090E0A0E0B0E8E82AF92A0A2B1B2BC3
:1005A00076956795579547952F5F3F4F77FDE7CF36
:1005B0000CC0440F551F661F771F17FD4160EE0CDE
:1005C000FF1C001F111F21503040403090E05907A0
:1005D00090E0690790E4790760F32B8F3C8FDB0193
:1005E000CA018F779070A070B07080349105A1051A
:1005F000B10561F447FD0AC0E114F10401051105DC
:1006000029F0405C5F4F6F4F7F4F40781A8EFE1786
:1006100011F081E08A8F4D8F5E8F6F8F78A383E01A
:10062000898FCE0149960E94FD03A096E2E10C94C9
:10063000440FA8E1B0E0EFE1F3E00C94340F6983DC
:100640007A838B839C832D833E834F83588789E0F5
:10065000E82EF12CEC0EFD1ECE010196B7010E9492
:10066000D2048E010F5E1F4FCE010596B8010E9485
:10067000D2048985823040F08989823028F0C70110
:10068000B8010E944A0501C08FEF6896E6E00C941D
:10069000500FA8E1B0E0EFE4F3E00C94340F69836D
:1006A0007A838B839C832D833E834F83588789E095
:1006B000E82EF12CEC0EFD1ECE010196B7010E9432
:1006C000D2048E010F5E1F4FCE010596B8010E9425
:1006D000D2048985823040F08989823028F0C701B0
:1006E000B8010E944A0501C08FEF6896E6E00C94BD
:1006F000500FA8E1B0E0EFE7F3E00C94340F69830A
:100700007A838B839C832D833E834F83588789E034
:10071000E82EF12CEC0EFD1ECE010196B7010E94D1
:10072000D2048E010F5E1F4FCE010596B8010E94C4
:10073000D2048985823040F08989823028F0C7014F
:10074000B8010E944A0501C081E06896E6E00C9479
:10075000500FACE0B0E0EFEAF3E00C94380F69839F
:100760007A838B839C83CE010196BE016B5F7F4FA2
:100770000E94D2048D81823061F1823050F1843048
:1007800021F48E81882351F12EC02F81388537FDC9
:1007900020C06E812F3131051CF06623F9F023C093
:1007A0008EE190E0821B930B29853A854B855C8511
:1007B00004C056954795379527958A95D2F76623B5
:1007C000B1F050954095309521953F4F4F4F5F4F79
:1007D0000EC020E030E040E050E009C02FEF3FEFD6
:1007E0004FEF5FE704C020E030E040E050E8B9019F
:1007F000CA012C96E2E00C94540FDF92EF92FF9224
:100800000F931F93FC01E480F58006811781D1804E
:100810008081823048F480E090E0A0E1B0E0E82AF6
:10082000F92A0A2B1B2BA5C0843009F49FC0823003
:1008300021F4EE24FF24870105C0E114F104010531
:10084000110519F4E0E0F0E096C0628173819FEF3A
:10085000623879070CF05BC022E83FEF261B370BAC
:100860002A3131052CF020E030E040E050E02AC091
:10087000B801A701022E04C0769567955795479554
:100880000A94D2F781E090E0A0E0B0E004C0880FC5
:10089000991FAA1FBB1F2A95D2F70197A109B10979
:1008A0008E219F21A023B1230097A105B10521F03E
:1008B00081E090E0A0E0B0E09A01AB01282B392B59
:1008C0004A2B5B2BDA01C9018F779070A070B07052
:1008D00080349105A105B10539F427FF09C0205CDA
:1008E0003F4F4F4F5F4F04C0215C3F4F4F4F5F4F13
:1008F000E0E0F0E02030A0E03A07A0E04A07A0E402
:100900005A0710F0E1E0F0E079018A0127C0603871
:10091000710564F5FB01E158FF4FD801C7018F77DE
:100920009070A070B07080349105A105B10539F4C4
:10093000E7FE0DC080E490E0A0E0B0E004C08FE3EB
:1009400090E0A0E0B0E0E80EF91E0A1F1B1F17FFA1
:1009500005C016950795F794E794319687E01695AC
:100960000795F794E7948A95D1F705C0EE24FF2404
:100970008701EFEFF0E06E2F679566276795902F60
:100980009F77D794DD24D7948E2F8695492F462BB9
:10099000582F5D29B701CA011F910F91FF90EF9069
:1009A000DF900895FC01DB01408151812281622F9B
:1009B0006F7770E0221F2227221F9381892F880FD3
:1009C000822B282F30E0991F9927991F11969C930D
:1009D000119721153105A9F54115510561057105DD
:1009E00011F482E037C082E89FEF13969C938E93B8
:1009F00012979A01AB0167E0220F331F441F551F66
:100A00006A95D1F783E08C930DC0220F331F441FEA
:100A1000551F12968D919C911397019713969C9355
:100A20008E931297203080E0380780E0480780E4FA
:100A3000580758F314962D933D934D935C93179755
:100A400008952F3F310579F4411551056105710570
:100A500019F484E08C93089564FF03C081E08C93C3
:100A600012C01C9210C02F57304013963C932E9307
:100A7000129783E08C9387E0440F551F661F771F02
:100A80008A95D1F7706414964D935D936D937C9322
:100A9000179708951F93DC01FB019C91923008F495
:100AA00047C08081823008F443C0943051F41196DD
:100AB0001C91843099F58181682F70E0611B710968
:100AC0003FC0843021F0923031F48230B9F181811D
:100AD000882389F12DC011961C9111978230F1F075
:100AE00081811817D9F412962D913C911397828128
:100AF00093818217930794F028173907BCF0149656
:100B00008D919D910D90BC91A02D248135814681C0
:100B10005781281739074A075B0718F4112341F05A
:100B20000AC082179307A407B50740F4112319F0F0
:100B300061E070E005C06FEF7FEF02C060E070E041
:100B4000CB011F910895DF93CF93CDB7DEB7A7E216
:100B5000B0E0E7E2F0E0808180648C93A7E2B0E04F
:100B6000E7E2F0E080818F778C93A7E2B0E0E7E2E4
:100B7000F0E0808180628C93A6E2B0E0E6E2F0E0F3
:100B80008081887F8C93A6E2B0E0E6E2F0E080818D
:100B900087608C93A6E2B0E0E6E2F0E080818F7D92
:100BA0008C93A6E2B0E0E6E2F0E0808180688C936E
:100BB000CF91DF910895DF93CF93CDB7DEB728971C
:100BC0000FB6F894DEBF0FBECDBF8E8378876F83DC
:100BD0001D828F819885009709F46AC08091680012
:100BE000882309F062C081E08093680019821A822C
:100BF0001B821C82A7E2B0E0E7E2F0E08081807E09
:100C00008C93A7E2B0E0E7E2F0E090818E81892B3F
:100C10008C93A6E2B0E0E6E2F0E0808180648C9301
:100C20000BC089819A81AB81BC810196A11DB11D48
:100C300089839A83AB83BC83E6E2F0E0808182956E
:100C40008F70882F90E081709070009761F4898197
:100C50009A81AB81BC81803523EC920720E0A2070A
:100C600020E0B207F0F289819A81AB81BC818035A6
:100C700023EC920720E0A20720E0B20719F483E0FA
:100C80008D8318C010926800A6E2B0E0E6E2F0E0C2
:100C9000808180618C93E5E2F0E08081882F90E094
:100CA000EF81F8859183808305C084E08D8302C045
:100CB00082E08D838D8128960FB6F894DEBF0FBE3B
:100CC000CDBFCF91DF910895DF93CF9300D000D0B7
:100CD00000D0CDB7DEB78A837C836B835E834D8380
:100CE00019828B819C81009721F08D819E810097D4
:100CF00019F482E0898333C080916800882369F504
:100D000081E0809368008B819C8190936A0080933E
:100D100069008D819E8190936C0080936B00A7E2A7
:100D2000B0E0E7E2F0E08081807E8C93A7E2B0E063
:100D3000E7E2F0E090818A81892B8C93A6E2B0E013
:100D4000E6E2F0E0808188608C93A6E2B0E0E6E223
:100D5000F0E0808180648C9302C084E08983898183
:100D600026960FB6F894DEBF0FBECDBFCF91DF91B0
:100D700008951F920F920FB60F9211242F933F9355
:100D80004F935F936F937F938F939F93AF93BF9393
:100D9000EF93FF93DF93CF93CDB7DEB71092680048
:100DA000A0916900B0916A00E5E2F0E08081882FAF
:100DB00090E08D939C93E0916B00F0916C0009950D
:100DC000A6E2B0E0E6E2F0E08081877F8C93CF91ED
:100DD000DF91FF91EF91BF91AF919F918F917F91A3
:100DE0006F915F914F913F912F910F900FBE0F9098
:100DF0001F901895DF93CF9300D00F92CDB7DEB739
:100E00009B838A8319828A819B81009719F482E0EF
:100E1000898309C0E5E2F0E08081882F90E0EA81D3
:100E2000FB819183808389810F900F900F90CF91E8
:100E3000DF910895DF93CF93CDB7DEB72F970FB62D
:100E4000F894DEBF0FBECDBF8F8782E060E040E048
:100E50000E94480B82E061E040E00E94480B8F85D1
:100E6000982F917083E064E0492F0E94480B8F8592
:100E70008695982F917083E065E0492F0E94480B7A
:100E80008F8586958695982F917083E066E0492F2F
:100E90000E94480B8F85869586958695982F917030
:100EA00083E067E0492F0E94480B82E062E041E066
:100EB0000E94480B80E090E0A0E0B0E48B879C8724
:100EC000AD87BE876B857C858D859E8520E030E86B
:100ED0004BE355E40E941F02DC01CB018F8398870E
:100EE000A987BA876F81788589859A8520E030E067
:100EF00040E85FE30E94790388232CF481E090E0CE
:100F00009E838D833FC06F81788589859A8520E097
:100F10003FEF4FE757E40E94190318164CF56B8515
:100F20007C858D859E8520E030E040E251E40E9482
:100F30001F02DC01CB01BC01CD010E944900DC0194
:100F4000CB019E838D830FC08CE291E09C838B83C9
:100F50008B819C810197F1F79C838B838D819E818E
:100F600001979E838D838D819E81009769F714C0C0
:100F70006F81788589859A850E944900DC01CB01C3
:100F80009E838D838D819E819A83898389819A81B5
:100F90000197F1F79A83898382E062E040E00E9442
:100FA000480B2F960FB6F894DEBF0FBECDBFCF9182
:100FB000DF910895DF93CF93CDB7DEB76D970FB66E
:100FC000F894DEBF0FBECDBF8D8F80916D00803154
:100FD00021F481E060E00E94110A82E060E041E0DB
:100FE0000E94480B82E061E040E00E94480B8D8D3A
:100FF00082958F70982F917083E064E0492F0E9452
:10100000480B8D8D829586958770982F917083E01F
:1010100065E0492F0E94480B8D8D829586958695B7
:101020008370982F917083E066E0492F0E94480BEF
:101030008D8D982F991F9927991F83E067E0492F7D
:101040000E94480B82E062E041E00E94480B80E091
:1010500090E0A0E0B0E4898F9A8FAB8FBC8F698D50
:101060007A8D8B8D9C8D20E030E84BE355E40E9417
:101070001F02DC01CB018D8B9E8BAF8BB88F6D89EE
:101080007E898F89988D20E030E040E85FE30E9400
:10109000790388232CF481E090E09C8B8B8B3FC0FC
:1010A0006D897E898F89988D20E03FEF4FE757E467
:1010B0000E94190318164CF5698D7A8D8B8D9C8DC5
:1010C00020E030E040E251E40E941F02DC01CB014D
:1010D000BC01CD010E944900DC01CB019C8B8B8BB4
:1010E0000FC08CE291E09A8B898B89899A8901974C
:1010F000F1F79A8B898B8B899C8901979C8B8B8BC1
:101100008B899C89009769F714C06D897E898F89C6
:10111000988D0E944900DC01CB019C8B8B8B8B89C5
:101120009C89988B8F878F8598890197F1F7988B89
:101130008F8782E062E040E00E94480B8D8D982FFF
:10114000917083E064E0492F0E94480B8D8D869555
:10115000982F917083E065E0492F0E94480B8D8D98
:1011600086958695982F917083E066E0492F0E94BE
:10117000480B8D8D869586958695982F917083E086
:1011800067E0492F0E94480B82E062E041E00E9444
:10119000480B80E090E0A0E0B0E48B879C87AD87AF
:1011A000BE876B857C858D859E8520E030E84BE38E
:1011B00055E40E941F02DC01CB018F839887A98729
:1011C000BA876F81788589859A8520E030E040E88C
:1011D0005FE30E94790388232CF481E090E09E83F2
:1011E0008D833FC06F81788589859A8520E03FEFA8
:1011F0004FE757E40E94190318164CF56B857C8560
:101200008D859E8520E030E040E251E40E941F027F
:10121000DC01CB01BC01CD010E944900DC01CB0106
:101220009E838D830FC08CE291E09C838B838B81A6
:101230009C810197F1F79C838B838D819E8101971F
:101240009E838D838D819E81009769F714C06F8185
:10125000788589859A850E944900DC01CB019E83AF
:101260008D838D819E819A83898389819A8101975B
:10127000F1F79A83898382E062E040E00E94480BA4
:1012800080916D008F5F80936D006D960FB6F8941E
:10129000DEBF0FBECDBFCF91DF910895DF93CF9317
:1012A000CDB7DEB72E970FB6F894DEBF0FBECDBF19
:1012B00080E090E0A0EFB1E48B879C87AD87BE878C
:1012C0006B857C858D859E8520E030E84BE355E479
:1012D0000E941F02DC01CB018F839887A987BA8700
:1012E0006F81788589859A8520E030E040E85FE36A
:1012F0000E94790388232CF481E090E09E838D8303
:101300003FC06F81788589859A8520E03FEF4FE760
:1013100057E40E94190318164CF56B857C858D8562
:101320009E8520E030E040E251E40E941F02DC0193
:10133000CB01BC01CD010E944900DC01CB019E83A1
:101340008D830FC08CE291E09C838B838B819C8189
:101350000197F1F79C838B838D819E8101979E83FA
:101360008D838D819E81009769F714C06F81788588
:1013700089859A850E944900DC01CB019E838D837B
:101380008D819E819A83898389819A810197F1F762
:101390009A83898382E00E941A0782E00E941A07DA
:1013A00088E00E941A0780E00E941A078CE00E94E1
:1013B0001A0780E00E941A0781E00E941A072E9601
:1013C0000FB6F894DEBF0FBECDBFCF91DF91089569
:1013D000DF93CF9300D00F92CDB7DEB79B838A8384
:1013E00019820EC08981282F30E08A819B81FC01FF
:1013F000E20FF31F80810E94DA0789818F5F898362
:101400008981282F30E08A819B81FC01E20FF31F44
:101410008081882339F70F900F900F90CF91DF9143
:101420000895DF93CF9300D00F92CDB7DEB78A83B4
:101430006B838A81882319F48B81898306C08A8112
:10144000813019F48B81805C8983898180688295E1
:101450008F700E941A0789810E941A070F900F90BF
:101460000F90CF91DF910895DF93CF93CDB7DEB783
:1014700027970FB6F894DEBF0FBECDBF9C838B833A
:101480006D834E832F838D81882F90E0880F991F65
:10149000880F991F880F991F8A838A81806482959B
:1014A0008F700E941A078A810E941A0719820EC043
:1014B0008981282F30E08B819C81FC01E20FF31F92
:1014C00080810E94DA0789818F5F898389818830D2
:1014D00078F38E816F810E94110A8D810E94DA0754
:1014E0008E81882321F48F818F5F80936D002796F2
:1014F0000FB6F894DEBF0FBECDBFCF91DF91089538
:10150000DF93CF93CDB7DEB72D970FB6F894DEBF3C
:101510000FBECDBF6D837E838F8398874987898572
:10152000882349F481E090E0A0E0B0E08A879B87BF
:10153000AC87BD8729C08D819E81AF81B8858983A5
:101540009A83AB83BC8315C089819A81AB81BC81AE
:101550002D813E814F815885BC01CD010E94E70E4F
:10156000DC01CB0189839A83AB83BC83898581505D
:1015700089878985823040F789819A81AB81BC81D6
:101580008A879B87AC87BD878A859B85AC85BD850F
:10159000BC01CD012D960FB6F894DEBF0FBECDBFB6
:1015A000CF91DF910895DF93CF93CDB7DEB7299721
:1015B0000FB6F894DEBF0FBECDBF6E837F838887E2
:1015C000998781E08D838E819F81A885B9858983E4
:1015D0009A83AB83BC8303C08D818F5F8D838981A8
:1015E0009A81AB81BC812AE030E040E050E0BC0150
:1015F000CD010E94060FDA01C90189839A83AB836A
:10160000BC8389819A81AB81BC810097A105B1051A
:1016100019F723C08D8181508D836AE070E080E0EE
:1016200090E04D810E94800A9B01AC018E819F81D8
:10163000A885B985BC01CD010E94060FDA01C90158
:101640002AE030E040E050E0BC01CD010E94060FEE
:10165000DC01CB01805D0E94DA078D818823D1F601
:1016600029960FB6F894DEBF0FBECDBFCF91DF91A4
:101670000895DF93CF93CDB7DEB780E00E941A07BD
:1016800081E00E941A0710926D00CF91DF910895BA
:10169000DF93CF93CDB7DEB728970FB6F894DEBFB0
:1016A0000FBECDBF8A836B834C8319828B818830B8
:1016B00008F0EDC08C81882309F472C08A81282F3C
:1016C00030E038872F838F8198858130910549F1EB
:1016D0002F813885223031052CF48F819885009731
:1016E00061F05BC02F8138852230310571F18F8127
:1016F000988583309105E9F150C0ABE3B0E0EBE3AE
:10170000F0E08081482F8B81282F30E081E090E04D
:10171000022E02C0880F991F0A94E2F7842B8C9343
:10172000B8C0A8E3B0E0E8E3F0E08081482F8B8107
:10173000282F30E081E090E0022E02C0880F991F30
:101740000A94E2F7842B8C93A4C0A5E3B0E0E5E310
:10175000F0E08081482F8B81282F30E081E090E0FD
:10176000022E02C0880F991F0A94E2F7842B8C93F3
:1017700090C0A2E3B0E0E2E3F0E08081482F8B81EB
:10178000282F30E081E090E0022E02C0880F991FE0
:101790000A94E2F7842B8C937CC081E0898379C022
:1017A0008A81282F30E03E832D838D819E81813078
:1017B000910559F12D813E81223031052CF48D8126
:1017C0009E81009769F060C02D813E8122303105F5
:1017D00089F18D819E818330910509F440C054C008
:1017E000ABE3B0E0EBE3F0E08081482F8B81282F62
:1017F00030E081E090E0022E02C0880F991F0A9429
:10180000E2F7809584238C9344C0A8E3B0E0E8E33A
:10181000F0E08081482F8B81282F30E081E090E03C
:10182000022E02C0880F991F0A94E2F78095842344
:101830008C932FC0A5E3B0E0E5E3F0E08081482F72
:101840008B81282F30E081E090E0022E02C0880FCB
:10185000991F0A94E2F7809584238C931AC0A2E31F
:10186000B0E0E2E3F0E08081482F8B81282F30E068
:1018700081E090E0022E02C0880F991F0A94E2F7DF
:10188000809584238C9305C081E0898302C081E028
:101890008983898128960FB6F894DEBF0FBECDBF2D
:1018A000CF91DF910895DF93CF9300D000D00F92B6
:1018B000CDB7DEB78A836B8319828A81282F30E007
:1018C0003D832C838C819D8181309105D1F02C81C9
:1018D0003D81223031052CF48C819D81009761F08F
:1018E0001FC02C813D812230310581F08C819D818A
:1018F0008330910581F014C0EBE3F0E08B818083AD
:1019000011C0E8E3F0E08B8180830CC0E5E3F0E0F8
:101910008B81808307C0E2E3F0E08B81808302C08B
:1019200081E0898389810F900F900F900F900F9025
:10193000CF91DF910895DF93CF93CDB7DEB727978F
:101940000FB6F894DEBF0FBECDBF8A836B835D8375
:101950004C8319828C819D81009709F478C08B811A
:10196000883008F074C08A81282F30E03F832E83AE
:101970004E815F814130510559F18E819F818230C6
:10198000910534F42E813F812115310569F05CC049
:101990004E815F814230510579F18E819F81833084
:1019A000910509F43DC050C0E9E3F0E08081282FA3
:1019B00030E08B81882F90E0A90102C055954795B2
:1019C0008A95E2F7CA018170EC81FD81808341C074
:1019D000E6E3F0E08081282F30E08B81882F90E0D3
:1019E000A90102C0559547958A95E2F7CA01817011
:1019F000EC81FD8180832DC0E3E3F0E08081282F1E
:101A000030E08B81882F90E0A90102C05595479561
:101A10008A95E2F7CA018170EC81FD81808319C04B
:101A2000E0E3F0E08081282F30E08B81882F90E088
:101A3000A90102C0559547958A95E2F7CA018170C0
:101A4000EC81FD81808305C081E0898302C081E053
:101A50008983898127960FB6F894DEBF0FBECDBF6C
:101A6000CF91DF910895DF93CF9300D000D000D0C5
:101A7000CDB7DEB78A837C836B8319828A81282F56
:101A800030E03E832D838D819E8181309105E1F090
:101A90002D813E81223031052CF48D819E8100976D
:101AA00061F027C02D813E8122303105A1F08D816A
:101AB0009E8183309105B1F01CC0E9E3F0E08081A4
:101AC000EB81FC81808317C0E6E3F0E08081EB814D
:101AD000FC81808310C0E3E3F0E08081EB81FC8136
:101AE000808309C0E0E3F0E08081EB81FC818083AA
:101AF00002C081E08983898126960FB6F894DEBF03
:101B00000FBECDBFCF91DF910895DF93CF93CDB7B7
:101B1000DEB7AFE5B0E0EFE5F0E0808180688C9360
:101B2000CF91DF910895DF93CF93CDB7DEB7AFE5C7
:101B3000B0E0EFE5F0E080818F778C93CF91DF917B
:101B40000895DF93CF93CDB7DEB7EAE3F0E080EFFF
:101B50008083E7E3F0E08FEF8083E4E3F0E087E069
:101B60008083E1E3F0E083EF8083EBE3F0E08FEF4D
:101B70008083E8E3F0E01082E5E3F0E01082E2E346
:101B8000F0E08CE08083CF91DF910895DF93CF93D5
:101B9000CDB7DEB76C970FB6F894DEBF0FBECDBFE2
:101BA0000E94A10D0E94A3050E944E090E94850D6E
:101BB0002EE630E080E0B9010E94DB0580916E00E6
:101BC00090916F00CC01A0E0B0E0BC01CD010E947B
:101BD000D30A80E090E0A8ECB2E4898F9A8FAB8FB3
:101BE000BC8F698D7A8D8B8D9C8D20E030E84BE326
:101BF00055E40E941F02DC01CB018D8B9E8BAF8BC5
:101C0000B88F6D897E898F89988D20E030E040E81B
:101C10005FE30E94790388232CF481E090E09C8BA1
:101C20008B8B3FC06D897E898F89988D20E03FEF37
:101C30004FE757E40E94190318164CF5698D7A8D09
:101C40008B8D9C8D20E030E040E251E40E941F0229
:101C5000DC01CB01BC01CD010E944900DC01CB01BC
:101C60009C8B8B8B0FC08CE291E09A8B898B89893E
:101C70009A890197F1F79A8B898B8B899C890197B7
:101C80009C8B8B8B8B899C89009769F714C06D891D
:101C90007E898F89988D0E944900DC01CB019C8B45
:101CA0008B8B8B899C89988B8F878F8598890197DF
:101CB000F1F7988B8F870E94390B80E090E0A8ECB9
:101CC000B2E48B879C87AD87BE876B857C858D85CD
:101CD0009E8520E030E84BE355E40E941F02DC01C2
:101CE000CB018F839887A987BA876F81788589858B
:101CF0009A8520E030E040E85FE30E947903882382
:101D00002CF481E090E09E838D833FC06F817885C5
:101D100089859A8520E03FEF4FE757E40E94190339
:101D200018164CF56B857C858D859E8520E030E00E
:101D300040E251E40E941F02DC01CB01BC01CD0155
:101D40000E944900DC01CB019E838D830FC08CE291
:101D500091E09C838B838B819C810197F1F79C831D
:101D60008B838D819E8101979E838D838D819E8142
:101D7000009769F71DCF6F81788589859A850E94C4
:101D80004900DC01CB019E838D838D819E819A83E6
:101D9000898389819A810197F1F79A83898308CF92
:101DA000DF93CF93CDB7DEB781E060E041E00E94E2
:101DB000480B80916E0090916F00CC01A0E0B0E0E4
:101DC000BC01CD010E94D30ACF91DF910895629F9B
:101DD000D001739FF001829FE00DF11D649FE00D23
:101DE000F11D929FF00D839FF00D749FF00D659F84
:101DF000F00D9927729FB00DE11DF91F639FB00D83
:101E0000E11DF91FBD01CF0111240895A1E21A2E91
:101E1000AA1BBB1BFD010DC0AA1FBB1FEE1FFF1F8E
:101E2000A217B307E407F50720F0A21BB30BE40BDE
:101E3000F50B661F771F881F991F1A9469F7609525
:101E40007095809590959B01AC01BD01CF010895DF
:101E50002F923F924F925F926F927F928F929F92BA
:101E6000AF92BF92CF92DF92EF92FF920F931F93A8
:101E7000CF93DF93CDB7DEB7CA1BDB0B0FB6F89459
:101E8000DEBF0FBECDBF09942A88398848885F8499
:101E90006E847D848C849B84AA84B984C884DF800A
:101EA000EE80FD800C811B81AA81B981CE0FD11DEE
:101EB0000FB6F894DEBF0FBECDBFED010895F894C4
:021EC000FFCF52
:081EC200000000000000000018
:00000001FF
