:100000000C942A000C949F040C94CC040C94F904D6
:100010000C943C000C943C000C943C000C943C0070
:100020000C943C000C943C000C943C000C943C0060
:100030000C943C000C943C000C943C000C943C0050
:100040000C943C000C943C000C943C000C943C0040
:100050000C943C0011241FBECFE5D8E0DEBFCDBF1D
:1000600010E0A0E6B0E001C01D92A636B107E1F7AE
:100070000E9468050C94B6050C940000DF93CF93A2
:10008000CDB7DEB728970FB6F894DEBF0FBECDBF51
:100090008A836B834C8319828B81883008F0EDC092
:1000A0008C81882309F472C08A81282F30E0388738
:1000B0002F838F8198858130910549F12F81388573
:1000C000223031052CF48F819885009761F05BC058
:1000D0002F8138852230310571F18F8198858330E9
:1000E0009105E9F150C0ABE3B0E0EBE3F0E08081D3
:1000F000482F8B81282F30E081E090E0022E02C053
:10010000880F991F0A94E2F7842B8C93B8C0A8E358
:10011000B0E0E8E3F0E08081482F8B81282F30E0C9
:1001200081E090E0022E02C0880F991F0A94E2F746
:10013000842B8C93A4C0A5E3B0E0E5E3F0E08081DC
:10014000482F8B81282F30E081E090E0022E02C002
:10015000880F991F0A94E2F7842B8C9390C0A2E336
:10016000B0E0E2E3F0E08081482F8B81282F30E07F
:1001700081E090E0022E02C0880F991F0A94E2F7F6
:10018000842B8C937CC081E0898379C08A81282F5D
:1001900030E03E832D838D819E818130910559F120
:1001A0002D813E81223031052CF48D819E81009776
:1001B00069F060C02D813E812230310589F18D8149
:1001C0009E818330910509F440C054C0ABE3B0E098
:1001D000EBE3F0E08081482F8B81282F30E081E035
:1001E00090E0022E02C0880F991F0A94E2F78095D2
:1001F00084238C9344C0A8E3B0E0E8E3F0E080817E
:10020000482F8B81282F30E081E090E0022E02C041
:10021000880F991F0A94E2F7809584238C932FC04E
:10022000A5E3B0E0E5E3F0E08081482F8B81282F43
:1002300030E081E090E0022E02C0880F991F0A94FE
:10024000E2F7809584238C931AC0A2E3B0E0E2E346
:10025000F0E08081482F8B81282F30E081E090E012
:10026000022E02C0880F991F0A94E2F7809584231A
:100270008C9305C081E0898302C081E089838981F4
:1002800028960FB6F894DEBF0FBECDBFCF91DF9199
:100290000895DF93CF9300D000D00F92CDB7DEB793
:1002A0008A836B8319828A81282F30E03D832C83D7
:1002B0008C819D8181309105D1F02C813D8122304E
:1002C00031052CF48C819D81009761F01FC02C8139
:1002D0003D812230310581F08C819D8183309105F3
:1002E00081F014C0EBE3F0E08B81808311C0E8E380
:1002F000F0E08B8180830CC0E5E3F0E08B818083AC
:1003000007C0E2E3F0E08B81808302C081E0898353
:1003100089810F900F900F900F900F90CF91DF91E8
:100320000895DF93CF93CDB7DEB727970FB6F89434
:10033000DEBF0FBECDBF8A836B835D834C83198282
:100340008C819D81009709F478C08B81883008F0FA
:1003500074C08A81282F30E03F832E834E815F81D5
:100360004130510559F18E819F818230910534F4DD
:100370002E813F812115310569F05CC04E815F817E
:100380004230510579F18E819F818330910509F4C6
:100390003DC050C0E9E3F0E08081282F30E08B8140
:1003A000882F90E0A90102C0559547958A95E2F7FC
:1003B000CA018170EC81FD81808341C0E6E3F0E0F9
:1003C0008081282F30E08B81882F90E0A90102C026
:1003D000559547958A95E2F7CA018170EC81FD81B8
:1003E00080832DC0E3E3F0E08081282F30E08B8113
:1003F000882F90E0A90102C0559547958A95E2F7AC
:10040000CA018170EC81FD81808319C0E0E3F0E0D6
:100410008081282F30E08B81882F90E0A90102C0D5
:10042000559547958A95E2F7CA018170EC81FD8167
:10043000808305C081E0898302C081E0898389814E
:1004400027960FB6F894DEBF0FBECDBFCF91DF91D8
:100450000895DF93CF9300D000D000D0CDB7DEB7A2
:100460008A837C836B8319828A81282F30E03E83C4
:100470002D838D819E8181309105E1F02D813E811A
:10048000223031052CF48D819E81009761F027C0C8
:100490002D813E8122303105A1F08D819E818330F6
:1004A0009105B1F01CC0E9E3F0E08081EB81FC81B3
:1004B000808317C0E6E3F0E08081EB81FC818083DC
:1004C00010C0E3E3F0E08081EB81FC81808309C010
:1004D000E0E3F0E08081EB81FC81808302C081E079
:1004E0008983898126960FB6F894DEBF0FBECDBFF3
:1004F000CF91DF910895DF93CF93CDB7DEB7ABE512
:10050000B0E0EBE5F0E0808180648C93A5E5B0E09D
:10051000E5E5F0E0808182608C93A5E5B0E0E5E55B
:10052000F0E080818E7F8C93CF91DF910895DF93EF
:10053000CF93CDB7DEB7ABE5B0E0EBE5F0E080817F
:1005400080688C93A5E5B0E0E5E5F0E08081886007
:100550008C93A5E5B0E0E5E5F0E080818B7F8C939E
:10056000CF91DF910895DF93CF93CDB7DEB7ABE5A1
:10057000B0E0EBE5F0E0808180628C93A4E5B0E030
:10058000E4E5F0E080818F7B8C93CF91DF9108953B
:10059000DF93CF93CDB7DEB729970FB6F894DEBFC0
:1005A0000FBECDBF8A836B8319828A81282F30E0EA
:1005B000398728878885998582309105C9F02885F3
:1005C0003985233031053CF4888599858130910542
:1005D00009F44BC0D5C0288539852330310509F48D
:1005E00081C0888599858430910509F4A2C0C8C06E
:1005F0008B81282F30E03F832E838E819F81823034
:100600009105C9F02E813F812330310519F18E818A
:100610009F818130910531F5A5E5B0E0E5E5F0E099
:10062000808182608C93A5E5B0E0E5E5F0E0808113
:1006300081608C93A7C0A5E5B0E0E5E5F0E080819E
:1006400088608C93A5E5B0E0E5E5F0E0808184600A
:100650008C9398C0A4E5B0E0E4E5F0E0808180648C
:100660008C9390C081E089838DC08B81282F30E0EE
:100670003D832C838C819D8182309105C9F02C8132
:100680003D812330310519F18C819D8181309105A7
:1006900031F5A5E5B0E0E5E5F0E0808182608C937E
:1006A000A5E5B0E0E5E5F0E080818E7F8C936AC03F
:1006B000A5E5B0E0E5E5F0E0808188608C93A5E5F4
:1006C000B0E0E5E5F0E080818B7F8C935BC0A4E532
:1006D000B0E0E4E5F0E080818F7B8C9353C081E053
:1006E000898350C08B81813079F4A5E5B0E0E5E5E0
:1006F000F0E080818D7F8C93A5E5B0E0E5E5F0E04A
:10070000808181608C933EC08B81823079F4A5E535
:10071000B0E0E5E5F0E08081877F8C93A5E5B0E06F
:10072000E5E5F0E0808184608C932CC081E08983D2
:1007300029C08B81813079F4A5E5B0E0E5E5F0E0F2
:1007400080818D7F8C93A5E5B0E0E5E5F0E08081C8
:100750008E7F8C9317C08B81823079F4A5E5B0E051
:10076000E5E5F0E08081877F8C93A5E5B0E0E5E5E5
:10077000F0E080818B7F8C9305C081E0898302C08B
:1007800081E08983898129960FB6F894DEBF0FBE78
:10079000CDBFCF91DF910895DF93CF9300D000D0EC
:1007A000CDB7DEB78A8319828A81282F30E03C8357
:1007B0002B838B819C818230910591F02B813C8130
:1007C00023303105A9F08B819C8181309105C1F4E2
:1007D000ABE5B0E0EBE5F0E0808180648C9312C083
:1007E000ABE5B0E0EBE5F0E0808180688C930AC077
:1007F000ABE5B0E0EBE5F0E0808180628C9302C075
:1008000081E0898389810F900F900F900F90CF9195
:10081000DF910895DF93CF9300D000D0CDB7DEB73E
:100820008A8319828A81282F30E03C832B838B8135
:100830009C818230910591F02B813C8123303105E0
:10084000A9F08B819C8181309105C1F4ABE5B0E0CA
:10085000EBE5F0E080818F7B8C9312C0ABE5B0E0DC
:10086000EBE5F0E080818F778C930AC0ABE5B0E0D8
:10087000EBE5F0E080818F7D8C9302C081E089837D
:1008800089810F900F900F900F90CF91DF91089575
:10089000DF93CF9300D00F92CDB7DEB79B838A83CF
:1008A00019828A819B81009719F482E0898306C0AE
:1008B0008A819B81909361008093600089810F9071
:1008C0000F900F90CF91DF910895DF93CF9300D0D9
:1008D0000F92CDB7DEB79B838A8319828A819B8171
:1008E000009719F482E0898306C08A819B819093E6
:1008F00063008093620089810F900F900F90CF91D9
:10090000DF910895DF93CF9300D00F92CDB7DEB77C
:100910009B838A8319828A819B81009719F482E0E4
:10092000898306C08A819B819093650080936400CF
:1009300089810F900F900F90CF91DF9108951F92B2
:100940000F920FB60F9211242F933F934F935F9303
:100950006F937F938F939F93AF93BF93EF93FF9387
:10096000DF93CF93CDB7DEB7E0916000F0916100E7
:100970000995CF91DF91FF91EF91BF91AF919F9139
:100980008F917F916F915F914F913F912F910F9038
:100990000FBE0F901F9018951F920F920FB60F92D7
:1009A00011242F933F934F935F936F937F938F9374
:1009B0009F93AF93BF93EF93FF93DF93CF93CDB705
:1009C000DEB7E0916200F09163000995CF91DF916D
:1009D000FF91EF91BF91AF919F918F917F916F9117
:1009E0005F914F913F912F910F900FBE0F901F90ED
:1009F00018951F920F920FB60F9211242F933F93C9
:100A00004F935F936F937F938F939F93AF93BF9316
:100A1000EF93FF93DF93CF93CDB7DEB7E091640000
:100A2000F09165000995CF91DF91FF91EF91BF9112
:100A3000AF919F918F917F916F915F914F913F9176
:100A40002F910F900FBE0F901F901895DF93CF93AB
:100A5000CDB7DEB7AFE5B0E0EFE5F0E080818068CC
:100A60008C93CF91DF910895DF93CF93CDB7DEB70D
:100A7000AFE5B0E0EFE5F0E080818F778C93CF9128
:100A8000DF910895DF93CF93CDB7DEB7EAE3F0E0CF
:100A900080EF8083E7E3F0E08BE08083E4E3F0E045
:100AA00087E08083E1E3F0E083EF8083EBE3F0E035
:100AB0008FEF8083E8E3F0E084E08083E5E3F0E01B
:100AC0001082E2E3F0E08CE08083CF91DF91089523
:100AD000DF93CF93CDB7DEB70E9442050E94260573
:100AE00081E00E94CC0382E00E94CC0383E00E945C
:100AF000CC0381E061E00E94C80281E062E00E94D4
:100B0000C80281E063E00E94C80282E995E00E9489
:100B100048048EE995E00E9465048AEA95E00E9407
:100B20008204FFCFDF93CF93CDB7DEB781E060E0E3
:100B300041E00E943E00CF91DF910895DF93CF9373
:100B4000CDB7DEB781E061E041E00E943E00CF9189
:100B5000DF910895DF93CF93CDB7DEB781E063E0F7
:100B600041E00E943E00CF91DF910895F894FFCFBD
:00000001FF
