:100000000C942A000C943C000C943C000C943C0092
:100010000C943C000C943C000C943C000C943C0070
:100020000C943C000C943C000C943C000C943C0060
:100030000C943C000C9404040C9442040C9476043C
:100040000C943C000C943C000C943C000C943C0040
:100050000C943C0011241FBECFE5D8E0DEBFCDBF1D
:1000600010E0A0E6B0E001C01D92AA36B107E1F7AA
:100070000E94A3040C94C9040C940000DF93CF9356
:10008000CDB7DEB728970FB6F894DEBF0FBECDBF51
:100090008A836B834C8319828B81883008F0EDC092
:1000A0008C81882309F472C08A81282F30E0388738
:1000B0002F838F8198858130910549F12F81388573
:1000C000223031052CF48F819885009761F05BC058
:1000D0002F8138852230310571F18F8198858330E9
:1000E0009105E9F150C0ABE3B0E0EBE3F0E08081D3
:1000F000482F8B81282F30E081E090E0022E02C053
:10010000880F991F0A94E2F7842B8C93B8C0A8E358
:10011000B0E0E8E3F0E08081482F8B81282F30E0C9
:1001200081E090E0022E02C0880F991F0A94E2F746
:10013000842B8C93A4C0A5E3B0E0E5E3F0E08081DC
:10014000482F8B81282F30E081E090E0022E02C002
:10015000880F991F0A94E2F7842B8C9390C0A2E336
:10016000B0E0E2E3F0E08081482F8B81282F30E07F
:1001700081E090E0022E02C0880F991F0A94E2F7F6
:10018000842B8C937CC081E0898379C08A81282F5D
:1001900030E03E832D838D819E818130910559F120
:1001A0002D813E81223031052CF48D819E81009776
:1001B00069F060C02D813E812230310589F18D8149
:1001C0009E818330910509F440C054C0ABE3B0E098
:1001D000EBE3F0E08081482F8B81282F30E081E035
:1001E00090E0022E02C0880F991F0A94E2F78095D2
:1001F00084238C9344C0A8E3B0E0E8E3F0E080817E
:10020000482F8B81282F30E081E090E0022E02C041
:10021000880F991F0A94E2F7809584238C932FC04E
:10022000A5E3B0E0E5E3F0E08081482F8B81282F43
:1002300030E081E090E0022E02C0880F991F0A94FE
:10024000E2F7809584238C931AC0A2E3B0E0E2E346
:10025000F0E08081482F8B81282F30E081E090E012
:10026000022E02C0880F991F0A94E2F7809584231A
:100270008C9305C081E0898302C081E089838981F4
:1002800028960FB6F894DEBF0FBECDBFCF91DF9199
:100290000895DF93CF9300D000D00F92CDB7DEB793
:1002A0008A836B8319828A81282F30E03D832C83D7
:1002B0008C819D8181309105D1F02C813D8122304E
:1002C00031052CF48C819D81009761F01FC02C8139
:1002D0003D812230310581F08C819D8183309105F3
:1002E00081F014C0EBE3F0E08B81808311C0E8E380
:1002F000F0E08B8180830CC0E5E3F0E08B818083AC
:1003000007C0E2E3F0E08B81808302C081E0898353
:1003100089810F900F900F900F900F90CF91DF91E8
:100320000895DF93CF93CDB7DEB727970FB6F89434
:10033000DEBF0FBECDBF8A836B835D834C83198282
:100340008C819D81009709F478C08B81883008F0FA
:1003500074C08A81282F30E03F832E834E815F81D5
:100360004130510559F18E819F818230910534F4DD
:100370002E813F812115310569F05CC04E815F817E
:100380004230510579F18E819F818330910509F4C6
:100390003DC050C0E9E3F0E08081282F30E08B8140
:1003A000882F90E0A90102C0559547958A95E2F7FC
:1003B000CA018170EC81FD81808341C0E6E3F0E0F9
:1003C0008081282F30E08B81882F90E0A90102C026
:1003D000559547958A95E2F7CA018170EC81FD81B8
:1003E00080832DC0E3E3F0E08081282F30E08B8113
:1003F000882F90E0A90102C0559547958A95E2F7AC
:10040000CA018170EC81FD81808319C0E0E3F0E0D6
:100410008081282F30E08B81882F90E0A90102C0D5
:10042000559547958A95E2F7CA018170EC81FD8167
:10043000808305C081E0898302C081E0898389814E
:1004400027960FB6F894DEBF0FBECDBFCF91DF91D8
:100450000895DF93CF9300D000D000D0CDB7DEB7A2
:100460008A837C836B8319828A81282F30E03E83C4
:100470002D838D819E8181309105E1F02D813E811A
:10048000223031052CF48D819E81009761F027C0C8
:100490002D813E8122303105A1F08D819E818330F6
:1004A0009105B1F01CC0E9E3F0E08081EB81FC81B3
:1004B000808317C0E6E3F0E08081EB81FC818083DC
:1004C00010C0E3E3F0E08081EB81FC81808309C010
:1004D000E0E3F0E08081EB81FC81808302C081E079
:1004E0008983898126960FB6F894DEBF0FBECDBFF3
:1004F000CF91DF910895DF93CF93CDB7DEB7EAE3D5
:10050000F0E080EF8083E7E3F0E08FEF8083E4E3C7
:10051000F0E087E08083E1E3F0E08EE08083EBE3CE
:10052000F0E08FEF8083E8E3F0E01082E5E3F0E0B5
:100530001082E2E3F0E01082CF91DF910895DF9323
:10054000CF93CDB7DEB7E0E4F0E086E88083E9E260
:10055000F0E08DE48083E0E4F0E01082AAE2B0E015
:10056000EAE2F0E080818B7F8C93ABE2B0E0EBE2DB
:10057000F0E080818D7F8C93CF91DF910895DF93A0
:10058000CF93CDB7DEB727970FB6F894DEBF0FBE77
:10059000CDBF9F838E831D8219821A821B821C828B
:1005A000AAE2B0E0EAE2F0E080818F7E8C93AAE2DA
:1005B000B0E0EAE2F0E0808188608C930BC0898132
:1005C0009A81AB81BC810196A11DB11D89839A835B
:1005D000AB83BC83EBE2F0E08081829586958770E7
:1005E000882F90E081709070009761F489819A81E2
:1005F000AB81BC8180342BE492072CE4A20720E07D
:10060000B207E8F289819A81AB81BC8180342BE406
:1006100092072CE4A20720E0B20719F483E08D834F
:1006200004C0ECE2F0E08E8180838D8127960FB6C6
:10063000F894DEBF0FBECDBFCF91DF910895DF9359
:10064000CF9300D0CDB7DEB7AAE2B0E0EAE2F0E0A7
:100650008081877F8C93AAE2B0E0EAE2F0E08081BB
:1006600080618C93EBE2F0E080818823DCF7ECE2A0
:10067000F0E08081882F90E09A83898389819A8134
:100680000F900F90CF91DF910895DF93CF9300D01B
:1006900000D0CDB7DEB78A8319828A81282F30E057
:1006A0003C832B838B819C818130910589F02B8148
:1006B0003C8122303105A1F08B819C810097C1F4EF
:1006C000AAE2B0E0EAE2F0E0808180688C9312C098
:1006D000AAE2B0E0EAE2F0E0808180648C930AC094
:1006E000AAE2B0E0EAE2F0E0808180628C9302C08E
:1006F00081E0898389810F900F900F900F90CF91A7
:10070000DF910895DF93CF9300D000D0CDB7DEB74F
:100710009A8389837C836B83AAE2B0E0EAE2F0E00B
:1007200080818F7E8C93AAE2B0E0EAE2F0E08081E3
:1007300088608C938B819C81909361008093600092
:1007400089819A8190936900809368000F900F903F
:100750000F900F90CF91DF910895DF93CF9300D04A
:1007600000D00F92CDB7DEB79B838A837D836C83E5
:1007700019828C819D81009721F08A819B8100974D
:1007800019F482E089831AC0AAE2B0E0EAE2F0E05C
:100790008081877F8C93AAE2B0E0EAE2F0E080817A
:1007A00080618C938C819D81909363008093620023
:1007B0008A819B81909367008093660089810F9066
:1007C0000F900F900F900F90CF91DF910895DF93CE
:1007D000CF9300D00F92CDB7DEB79B838A83198267
:1007E0008A819B81009739F08A819B819093650073
:1007F0008093640002C082E0898389810F900F900A
:100800000F90CF91DF9108951F920F920FB60F9224
:1008100011242F933F934F935F936F937F938F9305
:100820009F93AF93BF93EF93FF93DF93CF93CDB796
:10083000DEB78091660090916700009781F0A091EB
:100840006600B0916700ECE2F0E08081882F90E0D4
:100850008D939C93E0916200F09163000995CF9194
:10086000DF91FF91EF91BF91AF919F918F917F9118
:100870006F915F914F913F912F910F900FBE0F900D
:100880001F9018951F920F920FB60F9211242F935D
:100890003F934F935F936F937F938F939F93AF9308
:1008A000BF93EF93FF93DF93CF93CDB7DEB7ECE227
:1008B000F0E080916800909169008083E091600091
:1008C000F09161000995CF91DF91FF91EF91BF9178
:1008D000AF919F918F917F916F915F914F913F91D8
:1008E0002F910F900FBE0F901F9018951F920F928F
:1008F0000FB60F9211242F933F934F935F936F93F3
:100900007F938F939F93AF93BF93EF93FF93DF9367
:10091000CF93CDB7DEB7E0916400F0916500099503
:10092000CF91DF91FF91EF91BF91AF919F918F9107
:100930007F916F915F914F913F912F910F900FBEDB
:100940000F901F901895DF93CF930F92CDB7DEB71E
:100950000E947B020E949F020E941F03898389815B
:10096000813351F481E060E041E00E943E008FE677
:1009700090E00E94BF02F0CF8981823369F781E065
:1009800060E040E00E943E0084E790E00E94BF02E9
:06099000E3CFF894FFCF55
:00000001FF
