:100000000C942A000C9447000C9447000C94470071
:100010000C9447000C9447000C9447000C94470044
:100020000C9447000C9447000C9447000C94470034
:100030000C9447000C9447000C9447000C94470024
:100040000C9447000C9447000C9447000C94470014
:100050000C94470011241FBECFE5D8E0DEBFCDBF12
:1000600011E0A0E6B0E0E8E3FAE302C005900D92EB
:10007000AC3CB107D9F711E0ACECB1E001C01D9286
:10008000AD3CB107E1F70E94AA0C0C941A1D0C9428
:100090000000EF92FF920F931F937B018C0120E0F1
:1000A00030E040E05FE40E94490388238CF0C801FF
:1000B000B70120E030E040E05FE40E94C1010E940F
:1000C000A9039B01AC01205030404040504806C07D
:1000D000C801B7010E94A9039B01AC01B901CA0183
:1000E0001F910F91FF90EF900895A0E0B0E0EBE733
:1000F000F0E00C94E31CDC012B01FA019C9192309E
:1001000008F439C1EB018881823008F433C194309E
:1001100069F4843009F02FC111969C91119789815F
:10012000981709F428C1ABE6B1E025C1843009F481
:1001300021C18230A9F4923009F01DC19A01AD01AC
:1001400088E0EA010990AE01E90109929E0181501F
:10015000C1F7E201898111969C918923818308C1AD
:10016000923009F407C112962D903C901397EB0141
:100170008A819B811496AD90BD90CD90DC901797AD
:10018000EC80FD800E811F819101281B390BB90184
:1001900037FF04C066277727621B730B6032710537
:1001A0000CF061C0121613066CF537014801062EDB
:1001B00004C096948794779467940A94D2F721E0C8
:1001C00030E040E050E004C0220F331F441F551FB1
:1001D0006A95D2F721503040404050402E213F21B7
:1001E00040235123211531054105510521F021E01E
:1001F00030E040E050E079018A01E628F72808293C
:1002000019293CC0232BD1F1260E371E350146019A
:10021000062E04C096948794779467940A94D2F734
:1002200021E030E040E050E004C0220F331F441FC3
:10023000551F6A95D2F721503040404050402A2146
:100240003B214C215D21211531054105510521F04E
:1002500021E030E040E050E059016A01A628B728CB
:10026000C828D9280BC0821593052CF01C01AA249C
:10027000BB24650103C0EE24FF24870111969C91E5
:10028000D20111968C91981709F445C0992339F041
:10029000A80197012A193B094C095D0906C0A6016E
:1002A00095012E193F09400B510B57FD08C01182D3
:1002B0003382228224833583468357831DC081E0A5
:1002C00081833382228288279927DC01821B930B4A
:1002D000A40BB50B84839583A683B7830DC0220F2F
:1002E000331F441F551F24833583468357838281E0
:1002F000938101979383828324813581468157813D
:10030000DA01C9010197A109B1098F5F9F4FAF4F72
:10031000BF4328F30BC0918333822282EA0CFB1C7B
:100320000C1D1D1DE482F5820683178383E0808304
:10033000248135814681578157FF1AC0C901AA27F8
:1003400097FDA095BA2F81709070A070B0705695EF
:10035000479537952795822B932BA42BB52B848318
:100360009583A683B7838281938101969383828349
:10037000DF0101C0D201CD01CDB7DEB7E2E10C94BF
:10038000FF1CA0E2B0E0E7ECF1E00C94EF1C698305
:100390007A838B839C832D833E834F835887E9E048
:1003A000EE2EF12CEC0EFD1ECE010196B7010E943F
:1003B000D2048E010F5E1F4FCE010596B8010E9438
:1003C000D2048A8991E089278A8BC701B801AE01DE
:1003D000475E5F4F0E9475000E94FD03A096E6E015
:1003E0000C940B1DA0E2B0E0E8EFF1E00C94EF1CE0
:1003F00069837A838B839C832D833E834F835887C5
:10040000F9E0EF2EF12CEC0EFD1ECE010196B701A6
:100410000E94D2048E010F5E1F4FCE010596B801D7
:100420000E94D204C701B801AE01475E5F4F0E942F
:1004300075000E94FD03A096E6E00C940B1DA0E25F
:10044000B0E0E5E2F2E00C94E31C69837A838B83ED
:100450009C832D833E834F835887CE010196BE0136
:10046000675F7F4F0E94D204CE010596BE016F5E8A
:100470007F4F0E94D2049985923088F0898982301A
:10048000C8F0943019F4823051F404C0843029F457
:10049000923081F48BE691E0C6C0923049F420E0BE
:1004A0009A858A89981321E02A87CE010996BBC0D4
:1004B000823049F420E09A858A89981321E02A8BBA
:1004C000CE014196B0C02D843E844F8458886D88FB
:1004D0007E888F88988CEE24FF248701AA24BB2471
:1004E000650140E050E060E070E0E0E0F0E0C10174
:1004F00081709070892BE9F0E60CF71C081D191D1E
:100500009A01AB012A0D3B1D4C1D5D1D80E090E062
:10051000A0E0B0E0E614F7040805190520F481E036
:1005200090E0A0E0B0E0BA01A901480F591F6A1F8E
:100530007B1FAA0CBB1CCC1CDD1C97FE08C081E0F5
:1005400090E0A0E0B0E0A82AB92ACA2ADB2A3196B6
:10055000E032F10549F0660C771C881C991C569412
:10056000479437942794C3CFFA85EA892B893C892D
:100570008B859C85280F391F2E5F3F4F17C0CA01FE
:1005800081709070892B61F016950795F794E79428
:1005900080E090E0A0E0B0E8E82AF92A0A2B1B2BC3
:1005A00076956795579547952F5F3F4F77FDE7CF36
:1005B0000CC0440F551F661F771F17FD4160EE0CDE
:1005C000FF1C001F111F21503040403090E05907A0
:1005D00090E0690790E4790760F32B8F3C8FDB0193
:1005E000CA018F779070A070B07080349105A1051A
:1005F000B10561F447FD0AC0E114F10401051105DC
:1006000029F0405C5F4F6F4F7F4F40781A8EFE1786
:1006100011F081E08A8F4D8F5E8F6F8F78A383E01A
:10062000898FCE0149960E94FD03A096E2E10C94C9
:10063000FF1CA8E1B0E0EFE1F3E00C94EF1C69834C
:100640007A838B839C832D833E834F83588789E0F5
:10065000E82EF12CEC0EFD1ECE010196B7010E9492
:10066000D2048E010F5E1F4FCE010596B8010E9485
:10067000D2048985823040F08989823028F0C70110
:10068000B8010E944A0501C08FEF6896E6E00C941D
:100690000B1DA8E1B0E0EFE4F3E00C94EF1C6983DC
:1006A0007A838B839C832D833E834F83588789E095
:1006B000E82EF12CEC0EFD1ECE010196B7010E9432
:1006C000D2048E010F5E1F4FCE010596B8010E9425
:1006D000D2048985823040F08989823028F0C701B0
:1006E000B8010E944A0501C08FEF6896E6E00C94BD
:1006F0000B1DA8E1B0E0EFE7F3E00C94EF1C698379
:100700007A838B839C832D833E834F83588789E034
:10071000E82EF12CEC0EFD1ECE010196B7010E94D1
:10072000D2048E010F5E1F4FCE010596B8010E94C4
:10073000D2048985823040F08989823028F0C7014F
:10074000B8010E944A0501C081E06896E6E00C9479
:100750000B1DACE0B0E0EFEAF3E00C94F31C69830E
:100760007A838B839C83CE010196BE016B5F7F4FA2
:100770000E94D2048D81823061F1823050F1843048
:1007800021F48E81882351F12EC02F81388537FDC9
:1007900020C06E812F3131051CF06623F9F023C093
:1007A0008EE190E0821B930B29853A854B855C8511
:1007B00004C056954795379527958A95D2F76623B5
:1007C000B1F050954095309521953F4F4F4F5F4F79
:1007D0000EC020E030E040E050E009C02FEF3FEFD6
:1007E0004FEF5FE704C020E030E040E050E8B9019F
:1007F000CA012C96E2E00C940F1DDF92EF92FF925B
:100800000F931F93FC01E480F58006811781D1804E
:100810008081823048F480E090E0A0E1B0E0E82AF6
:10082000F92A0A2B1B2BA5C0843009F49FC0823003
:1008300021F4EE24FF24870105C0E114F104010531
:10084000110519F4E0E0F0E096C0628173819FEF3A
:10085000623879070CF05BC022E83FEF261B370BAC
:100860002A3131052CF020E030E040E050E02AC091
:10087000B801A701022E04C0769567955795479554
:100880000A94D2F781E090E0A0E0B0E004C0880FC5
:10089000991FAA1FBB1F2A95D2F70197A109B10979
:1008A0008E219F21A023B1230097A105B10521F03E
:1008B00081E090E0A0E0B0E09A01AB01282B392B59
:1008C0004A2B5B2BDA01C9018F779070A070B07052
:1008D00080349105A105B10539F427FF09C0205CDA
:1008E0003F4F4F4F5F4F04C0215C3F4F4F4F5F4F13
:1008F000E0E0F0E02030A0E03A07A0E04A07A0E402
:100900005A0710F0E1E0F0E079018A0127C0603871
:10091000710564F5FB01E158FF4FD801C7018F77DE
:100920009070A070B07080349105A105B10539F4C4
:10093000E7FE0DC080E490E0A0E0B0E004C08FE3EB
:1009400090E0A0E0B0E0E80EF91E0A1F1B1F17FFA1
:1009500005C016950795F794E794319687E01695AC
:100960000795F794E7948A95D1F705C0EE24FF2404
:100970008701EFEFF0E06E2F679566276795902F60
:100980009F77D794DD24D7948E2F8695492F462BB9
:10099000582F5D29B701CA011F910F91FF90EF9069
:1009A000DF900895FC01DB01408151812281622F9B
:1009B0006F7770E0221F2227221F9381892F880FD3
:1009C000822B282F30E0991F9927991F11969C930D
:1009D000119721153105A9F54115510561057105DD
:1009E00011F482E037C082E89FEF13969C938E93B8
:1009F00012979A01AB0167E0220F331F441F551F66
:100A00006A95D1F783E08C930DC0220F331F441FEA
:100A1000551F12968D919C911397019713969C9355
:100A20008E931297203080E0380780E0480780E4FA
:100A3000580758F314962D933D934D935C93179755
:100A400008952F3F310579F4411551056105710570
:100A500019F484E08C93089564FF03C081E08C93C3
:100A600012C01C9210C02F57304013963C932E9307
:100A7000129783E08C9387E0440F551F661F771F02
:100A80008A95D1F7706414964D935D936D937C9322
:100A9000179708951F93DC01FB019C91923008F495
:100AA00047C08081823008F443C0943051F41196DD
:100AB0001C91843099F58181682F70E0611B710968
:100AC0003FC0843021F0923031F48230B9F181811D
:100AD000882389F12DC011961C9111978230F1F075
:100AE00081811817D9F412962D913C911397828128
:100AF00093818217930794F028173907BCF0149656
:100B00008D919D910D90BC91A02D248135814681C0
:100B10005781281739074A075B0718F4112341F05A
:100B20000AC082179307A407B50740F4112319F0F0
:100B300061E070E005C06FEF7FEF02C060E070E041
:100B4000CB011F910895DF93CF93CDB7DEB72F97D9
:100B50000FB6F894DEBF0FBECDBF8F8782E060E096
:100B600040E00E94D10982E061E040E00E94D109AA
:100B70008F85982F917083E064E0492F0E94D109FE
:100B80008F858695982F917083E065E0492F0E94AC
:100B9000D1098F8586958695982F917083E066E0C0
:100BA000492F0E94D1098F85869586958695982F25
:100BB000917083E067E0492F0E94D10982E062E0F2
:100BC00041E00E94D10980E090E0A0E0B0E48B8792
:100BD0009C87AD87BE876B857C858D859E8520E053
:100BE00030E84BE355E40E941F02DC01CB018F8308
:100BF0009887A987BA876F81788589859A8520E04B
:100C000030E040E85FE30E94790388232CF481E020
:100C100090E09E838D833FC06F81788589859A851A
:100C200020E03FEF4FE757E40E94190318164CF5F8
:100C30006B857C858D859E8520E030E040E251E427
:100C40000E941F02DC01CB01BC01CD010E944900C2
:100C5000DC01CB019E838D830FC08CE291E09C83ED
:100C60008B838B819C810197F1F79C838B838D8192
:100C70009E8101979E838D838D819E81009769F768
:100C800014C06F81788589859A850E944900DC01AE
:100C9000CB019E838D838D819E819A8389838981F7
:100CA0009A810197F1F79A83898382E062E040E0BC
:100CB0000E94D1092F960FB6F894DEBF0FBECDBFAC
:100CC000CF91DF910895DF93CF93CDB7DEB76D97C6
:100CD0000FB6F894DEBF0FBECDBF8D8F8091CC01D3
:100CE000803121F481E060E00E949A0882E060E0B7
:100CF00041E00E94D10982E061E040E00E94D10918
:100D00008D8D82958F70982F917083E064E0492FCC
:100D10000E94D1098D8D829586958770982F91704C
:100D200083E065E0492F0E94D1098D8D82958695DB
:100D300086958370982F917083E066E0492F0E941A
:100D4000D1098D8D982F991F9927991F83E067E00E
:100D5000492F0E94D10982E062E041E00E94D1095E
:100D600080E090E0A0E0B0E4898F9A8FAB8FBC8FD9
:100D7000698D7A8D8B8D9C8D20E030E84BE355E4B6
:100D80000E941F02DC01CB018D8B9E8BAF8BB88F35
:100D90006D897E898F89988D20E030E040E85FE39F
:100DA0000E94790388232CF481E090E09C8B8B8B4C
:100DB0003FC06D897E898F89988D20E03FEF4FE796
:100DC00057E40E94190318164CF5698D7A8D8B8DA6
:100DD0009C8D20E030E040E251E40E941F02DC01E3
:100DE000CB01BC01CD010E944900DC01CB019C8BF1
:100DF0008B8B0FC08CE291E09A8B898B89899A89C1
:100E00000197F1F79A8B898B8B899C8901979C8B31
:100E10008B8B8B899C89009769F714C06D897E89BB
:100E20008F89988D0E944900DC01CB019C8B8B8BB4
:100E30008B899C89988B8F878F8598890197F1F78B
:100E4000988B8F8782E062E040E00E94D1098D8D0F
:100E5000982F917083E064E0492F0E94D1098D8D15
:100E60008695982F917083E065E0492F0E94D10903
:100E70008D8D86958695982F917083E066E0492F39
:100E80000E94D1098D8D869586958695982F9170B3
:100E900083E067E0492F0E94D10982E062E041E0EF
:100EA0000E94D10980E090E0A0E0B0E48B879C87AD
:100EB000AD87BE876B857C858D859E8520E030E87B
:100EC0004BE355E40E941F02DC01CB018F8398871E
:100ED000A987BA876F81788589859A8520E030E077
:100EE00040E85FE30E94790388232CF481E090E0DE
:100EF0009E838D833FC06F81788589859A8520E0A8
:100F00003FEF4FE757E40E94190318164CF56B8525
:100F10007C858D859E8520E030E040E251E40E9492
:100F20001F02DC01CB01BC01CD010E944900DC01A4
:100F3000CB019E838D830FC08CE291E09C838B83D9
:100F40008B819C810197F1F79C838B838D819E819E
:100F500001979E838D838D819E81009769F714C0D0
:100F60006F81788589859A850E944900DC01CB01D3
:100F70009E838D838D819E819A83898389819A81C5
:100F80000197F1F79A83898382E062E040E00E9452
:100F9000D1098091CC018F5F8093CC016D960FB603
:100FA000F894DEBF0FBECDBFCF91DF910895DF93E0
:100FB000CF93CDB7DEB72E970FB6F894DEBF0FBE36
:100FC000CDBF80E090E0A0EFB1E48B879C87AD8738
:100FD000BE876B857C858D859E8520E030E84BE360
:100FE00055E40E941F02DC01CB018F839887A987FB
:100FF000BA876F81788589859A8520E030E040E85E
:101000005FE30E94790388232CF481E090E09E83C3
:101010008D833FC06F81788589859A8520E03FEF79
:101020004FE757E40E94190318164CF56B857C8531
:101030008D859E8520E030E040E251E40E941F0251
:10104000DC01CB01BC01CD010E944900DC01CB01D8
:101050009E838D830FC08CE291E09C838B838B8178
:101060009C810197F1F79C838B838D819E810197F1
:101070009E838D838D819E81009769F714C06F8157
:10108000788589859A850E944900DC01CB019E8381
:101090008D838D819E819A83898389819A8101972D
:1010A000F1F79A83898382E00E94A30582E00E947F
:1010B000A30588E00E94A30580E00E94A3058CE0C0
:1010C0000E94A30580E00E94A30581E00E94A30581
:1010D0002E960FB6F894DEBF0FBECDBFCF91DF9135
:1010E0000895DF93CF9300D00F92CDB7DEB79B83E7
:1010F0008A8319820EC08981282F30E08A819B81E2
:10110000FC01E20FF31F80810E94630689818F5FDB
:1011100089838981282F30E08A819B81FC01E20F3D
:10112000F31F8081882339F70F900F900F90CF9194
:10113000DF910895DF93CF9300D00F92CDB7DEB744
:101140008A836B838A81882319F48B81898306C003
:101150008A81813019F48B81805C898389818068E0
:1011600082958F700E94A30589810E94A3050F902C
:101170000F900F90CF91DF910895DF93CF93CDB76C
:10118000DEB727970FB6F894DEBF0FBECDBF9C83A6
:101190008B836D834E832F838D81882F90E0880F02
:1011A000991F880F991F880F991F8A838A818064ED
:1011B00082958F700E94A3058A810E94A3051982DF
:1011C0000EC08981282F30E08B819C81FC01E20FC9
:1011D000F31F80810E94630689818F5F89838981E3
:1011E000883078F38E816F810E949A088D810E94E9
:1011F00063068E81882321F48F818F5F8093CC01D9
:1012000027960FB6F894DEBF0FBECDBFCF91DF910A
:101210000895DF93CF93CDB7DEB72D970FB6F8942F
:10122000DEBF0FBECDBF6D837E838F8398874987D6
:101230008985882349F481E090E0A0E0B0E08A87C6
:101240009B87AC87BD8729C08D819E81AF81B88582
:1012500089839A83AB83BC8315C089819A81AB81D2
:10126000BC812D813E814F815885BC01CD010E94FA
:10127000A21CDC01CB0189839A83AB83BC83898563
:10128000815089878985823040F789819A81AB8135
:10129000BC818A879B87AC87BD878A859B85AC8507
:1012A000BD85BC01CD012D960FB6F894DEBF0FBEF3
:1012B000CDBFCF91DF910895DF93CF93CDB7DEB748
:1012C00029970FB6F894DEBF0FBECDBF6E837F8324
:1012D0008887998781E08D838E819F81A885B985D4
:1012E00089839A83AB83BC8303C08D818F5F8D8399
:1012F00089819A81AB81BC812AE030E040E050E0F6
:10130000BC01CD010E94C11CDA01C90189839A8305
:10131000AB83BC8389819A81AB81BC810097A10595
:10132000B10519F723C08D8181508D836AE070E08B
:1013300080E090E04D810E9409099B01AC018E8103
:101340009F81A885B985BC01CD010E94C11CDA012D
:10135000C9012AE030E040E050E0BC01CD010E942C
:10136000C11CDC01CB01805D0E9463068D81882356
:10137000D1F629960FB6F894DEBF0FBECDBFCF9140
:10138000DF910895DF93CF93CDB7DEB780E00E9461
:10139000A30581E00E94A3051092CC01CF91DF91BB
:1013A0000895DF93CF93CDB7DEB728970FB6F894A3
:1013B000DEBF0FBECDBF8A836B834C8319828B81C6
:1013C000883008F0EDC08C81882309F472C08A81CE
:1013D000282F30E038872F838F81988581309105C1
:1013E00049F12F813885223031052CF48F81988581
:1013F000009761F05BC02F8138852230310571F193
:101400008F81988583309105E9F150C0ABE3B0E05E
:10141000EBE3F0E08081482F8B81282F30E081E0E2
:1014200090E0022E02C0880F991F0A94E2F7842BE5
:101430008C93B8C0A8E3B0E0E8E3F0E08081482FE7
:101440008B81282F30E081E090E0022E02C0880FCF
:10145000991F0A94E2F7842B8C93A4C0A5E3B0E013
:10146000E5E3F0E08081482F8B81282F30E081E098
:1014700090E0022E02C0880F991F0A94E2F7842B95
:101480008C9390C0A2E3B0E0E2E3F0E08081482FCB
:101490008B81282F30E081E090E0022E02C0880F7F
:1014A000991F0A94E2F7842B8C937CC081E0898396
:1014B00079C08A81282F30E03E832D838D819E81E3
:1014C0008130910559F12D813E81223031052CF476
:1014D0008D819E81009769F060C02D813E81223010
:1014E000310589F18D819E818330910509F440C0D9
:1014F00054C0ABE3B0E0EBE3F0E08081482F8B8198
:10150000282F30E081E090E0022E02C0880F991F62
:101510000A94E2F7809584238C9344C0A8E3B0E05A
:10152000E8E3F0E08081482F8B81282F30E081E0D4
:1015300090E0022E02C0880F991F0A94E2F780956E
:1015400084238C932FC0A5E3B0E0E5E3F0E0808135
:10155000482F8B81282F30E081E090E0022E02C0DE
:10156000880F991F0A94E2F7809584238C931AC000
:10157000A2E3B0E0E2E3F0E08081482F8B81282FE6
:1015800030E081E090E0022E02C0880F991F0A949B
:10159000E2F7809584238C9305C081E0898302C0A3
:1015A00081E08983898128960FB6F894DEBF0FBE4B
:1015B000CDBFCF91DF910895DF93CF9300D000D0BE
:1015C0000F92CDB7DEB78A836B8319828A81282F69
:1015D00030E03D832C838C819D8181309105D1F059
:1015E0002C813D81223031052CF48C819D81009726
:1015F00061F01FC02C813D812230310581F08C814A
:101600009D818330910581F014C0EBE3F0E08B8184
:10161000808311C0E8E3F0E08B8180830CC0E5E3B8
:10162000F0E08B81808307C0E2E3F0E08B81808370
:1016300002C081E0898389810F900F900F900F90F5
:101640000F90CF91DF910895DF93CF93CDB7DEB7A1
:1016500027970FB6F894DEBF0FBECDBF8A836B838A
:101660005D834C8319828C819D81009709F478C039
:101670008B81883008F074C08A81282F30E03F8346
:101680002E834E815F814130510559F18E819F81BA
:101690008230910534F42E813F812115310569F0A6
:1016A0005CC04E815F814230510579F18E819F810E
:1016B0008330910509F43DC050C0E9E3F0E080813A
:1016C000282F30E08B81882F90E0A90102C055952A
:1016D00047958A95E2F7CA018170EC81FD8180838C
:1016E00041C0E6E3F0E08081282F30E08B81882F35
:1016F00090E0A90102C0559547958A95E2F7CA0185
:101700008170EC81FD8180832DC0E3E3F0E0808176
:10171000282F30E08B81882F90E0A90102C05595D9
:1017200047958A95E2F7CA018170EC81FD8180833B
:1017300019C0E0E3F0E08081282F30E08B81882F12
:1017400090E0A90102C0559547958A95E2F7CA0134
:101750008170EC81FD81808305C081E0898302C0B6
:1017600081E08983898127960FB6F894DEBF0FBE8A
:10177000CDBFCF91DF910895DF93CF9300D000D0FC
:1017800000D0CDB7DEB78A837C836B8319828A81D0
:10179000282F30E03E832D838D819E8181309105FD
:1017A000E1F02D813E81223031052CF48D819E8126
:1017B000009761F027C02D813E8122303105A1F0D4
:1017C0008D819E8183309105B1F01CC0E9E3F0E08A
:1017D0008081EB81FC81808317C0E6E3F0E08081AB
:1017E000EB81FC81808310C0E3E3F0E08081EB813A
:1017F000FC81808309C0E0E3F0E08081EB81FC8123
:10180000808302C081E08983898126960FB6F8948F
:10181000DEBF0FBECDBFCF91DF910895DF93CF9391
:1018200000D000D00F92CDB7DEB78FEF8B831A8236
:101830005EC08A81882F90E0FC01E957FE4F9081BD
:1018400080E0692F40E00E94D10919823DC0898162
:10185000882F90E0FC01ED57FE4F90819E012C5F98
:101860003F4F80E0692FA9010E94240B8C818823BF
:1018700041F58981482F50E08A81282F30E0CA0144
:10188000880F991F880F991F820F931FFC01ED5835
:10189000FE4F80818B830FC08981882F90E0FC01EF
:1018A000ED57FE4F90819E012C5F3F4F80E0692FE6
:1018B000A9010E94240B8C81882371F38B818D8375
:1018C0001CC089818F5F89838981843008F4BFCFF0
:1018D0008A81882F90E0FC01E957FE4F908180E0DB
:1018E000692F41E00E94D1098A818F5F8A838A81B2
:1018F000843008F49ECF8B818D838D810F900F9063
:101900000F900F900F90CF91DF910895DF93CF93B9
:10191000CDB7DEB7EAE3F0E080EF8083E7E3F0E005
:1019200081E08083E4E3F0E087E08083E1E3F0E0BE
:101930008FEF8083EBE3F0E08FEF8083E8E3F0E06C
:101940001082E5E3F0E01082E2E3F0E01082CF9154
:10195000DF9108950F931F93DF93CF93CDB7DEB739
:10196000C657D1400FB6F894DEBF0FBECDBF0E9460
:10197000860CCE01815F9E4FC15BDE4F99838883C9
:10198000CF54D14083EC91E0CF5ADE4F99838883C6
:10199000C155D14098E0CD5ADE4F9883C355D14010
:1019A000CF5ADE4FE881F981C155D1400080CF5A2E
:1019B000DE4F88819981C155D1400196CF5ADE4FC3
:1019C00099838883C155D140C15BDE4FE881F9819D
:1019D000CF54D1400082C15BDE4F88819981CF54C2
:1019E000D1400196C15BDE4F99838883CF54D140AB
:1019F000CD5ADE4F9881C355D1409150CD5ADE4F1C
:101A00009883C355D140CD5ADE4FE881C355D140AC
:101A1000EE2331F6CE01895E9E4FCC5ADE4F99837C
:101A20008883C455D1408BEB91E0CA5ADE4F99832D
:101A30008883C655D14098E0C85ADE4F9883C85570
:101A4000D140CA5ADE4FE881F981C655D1400080A5
:101A5000CA5ADE4F88819981C655D1400196CA5A2B
:101A6000DE4F99838883C655D140CC5ADE4FE8813A
:101A7000F981C455D1400082CC5ADE4F88819981CA
:101A8000C455D1400196CC5ADE4F99838883C45502
:101A9000D140C85ADE4F9881C855D1409150C85A9C
:101AA000DE4F9883C855D140C85ADE4FE881C855EB
:101AB000D140EE2331F6CE01815E9E4FC75ADE4FF4
:101AC00099838883C955D14083EB91E0C55ADE4F95
:101AD00099838883CB55D14098E0C35ADE4F9883D1
:101AE000CD55D140C55ADE4FE881F981CB55D14063
:101AF0000080C55ADE4F88819981CB55D14001962F
:101B0000C55ADE4F99838883CB55D140C75ADE4FE3
:101B1000E881F981C955D1400082C75ADE4F8881DA
:101B20009981C955D1400196C75ADE4F9983888360
:101B3000C955D140C35ADE4F9881CD55D1409150FF
:101B4000C35ADE4F9883CD55D140C35ADE4FE8814A
:101B5000CD55D140EE2331F6CE01895D9E4FC25A5C
:101B6000DE4F99838883CE55D1408BEA91E0C05AED
:101B7000DE4F99838883C056D14098E0CE59DE4F1E
:101B80009883C256D140C05ADE4FE881F981C056D1
:101B9000D1400080C05ADE4F88819981C056D14023
:101BA0000196C05ADE4F99838883C056D140C25AED
:101BB000DE4FE881F981CE55D1400082C25ADE4F16
:101BC00088819981CE55D1400196C25ADE4F9983C2
:101BD0008883CE55D140CE59DE4F9881C256D14030
:101BE0009150CE59DE4F9883C256D140CE59DE4F28
:101BF000E881C256D140EE2331F6CE01815D9E4F81
:101C0000CD59DE4F99838883C356D14083EA91E052
:101C1000CB59DE4F99838883C556D14098E0C95986
:101C2000DE4F9883C756D140CB59DE4FE881F9810A
:101C3000C556D1400080CB59DE4F88819981C55669
:101C4000D1400196CB59DE4F99838883C556D14048
:101C5000CD59DE4FE881F981C356D1400082CD597C
:101C6000DE4F88819981C356D1400196CD59DE4F10
:101C700099838883C356D140C959DE4F9881C7568E
:101C8000D1409150C959DE4F9883C756D140C959A8
:101C9000DE4FE881C756D140EE2331F6CE01895C94
:101CA0009E4FC859DE4F99838883C856D1408BE92F
:101CB00091E0C659DE4F99838883CA56D14098E097
:101CC000C459DE4F9883CC56D140C659DE4FE881C7
:101CD000F981CA56D1400080C659DE4F888199816A
:101CE000CA56D1400196C659DE4F99838883CA5699
:101CF000D140C859DE4FE881F981C856D1400082F1
:101D0000C859DE4F88819981C856D1400196C8597B
:101D1000DE4F99838883C856D140C459DE4F9881DD
:101D2000CC56D1409150C459DE4F9883CC56D14007
:101D3000C459DE4FE881CC56D140EE2331F6CE01B6
:101D4000815C9E4FC359DE4F99838883CD56D14025
:101D500083E991E0C159DE4F99838883CF56D14002
:101D600098E0CF58DE4F9883C157D140C159DE4F1C
:101D7000E881F981CF56D1400080C159DE4F88817A
:101D80009981CF56D1400196C159DE4F99838883FE
:101D9000CF56D140C359DE4FE881F981CD56D140AD
:101DA0000082C359DE4F88819981CD56D14001967A
:101DB000C359DE4F99838883CD56D140CF58DE4F2B
:101DC0009881C157D1409150CF58DE4F9883C15769
:101DD000D140CF58DE4FE881C157D140EE2331F6D4
:101DE000CE01895B9E4FCE58DE4F99838883C257C0
:101DF000D1408BE891E0CC58DE4F99838883C4575B
:101E0000D14098E0CA58DE4F9883C657D140CC588D
:101E1000DE4FE881F981C457D1400080CC58DE4FB5
:101E200088819981C457D1400196CC58DE4F99835F
:101E30008883C457D140CE58DE4FE881F981C2571C
:101E4000D1400082CE58DE4F88819981C257D1405F
:101E50000196CE58DE4F99838883C257D140CA5825
:101E6000DE4F9881C657D1409150CA58DE4F9883B3
:101E7000C657D140CA58DE4FE881C657D140EE233D
:101E800031F60E94D70780E690E00E947108CE01EB
:101E9000815F9E4F60E041E02FE00E94BD08FE019F
:101EA000E95FFE4F80E090E4ACE9B5E48083918384
:101EB000A283B3838E010D5F1E4FFE01E95FFE4FCB
:101EC000608171818281938120E030E84BE355E4A9
:101ED0000E941F02DC01CB01F80180839183A28361
:101EE000B383FE01ED5FFE4F60817181828193813A
:101EF00020E030E040E85FE30E947903882344F467
:101F0000FE01EF5FFE4F81E090E09183808364C02B
:101F1000FE01ED5FFE4F608171818281938120E03F
:101F20003FEF4FE757E40E94190318160CF043C027
:101F3000FE01E95FFE4F608171818281938120E023
:101F400030E040E251E40E941F02DC01CB018E012F
:101F50000F5F1E4FBC01CD010E944900DC01CB0187
:101F6000F801918380831FC0FE01E150FF4F8CE296
:101F700091E091838083FE01E150FF4F8081918148
:101F80000197F1F7FE01E150FF4F91838083DE015D
:101F9000AF5FBE4FFE01EF5FFE4F808191810197E1
:101FA00011969C938E93FE01EF5FFE4F808191818D
:101FB0000097D1F627C08E010F5F1E4FFE01ED5F27
:101FC000FE4F60817181828193810E944900DC0112
:101FD000CB01F80191838083DE01A350BF4FFE0146
:101FE000EF5FFE4F808191818D939C93FE01E350C2
:101FF000FF4F808191810197F1F7FE01E350FF4F80
:10200000918380830E94C20984E790E00E94710856
:10201000CE01815F9E4F60E041E02FE00E94BD084D
:10202000FE01E750FF4F80E090E4ACE9B5E4808327
:102030009183A283B3838E010B501F4FFE01E750A3
:10204000FF4F608171818281938120E030E84BE312
:1020500055E40E941F02DC01CB01F80180839183CB
:10206000A283B383FE01EB50FF4F608171818281B7
:10207000938120E030E040E85FE30E947903882309
:1020800044F4FE01ED50FF4F81E090E091838083A6
:1020900064C0FE01EB50FF4F6081718182819381AA
:1020A00020E03FEF4FE757E40E94190318160CF0A9
:1020B00043C0FE01E750FF4F6081718182819381AF
:1020C00020E030E040E251E40E941F02DC01CB013D
:1020D0008E010D501F4FBC01CD010E944900DC0153
:1020E000CB01F801918380831FC0FE01EF50FF4FA9
:1020F0008CE291E091838083FE01EF50FF4F80815D
:1021000091810197F1F7FE01EF50FF4F918380839A
:10211000DE01AD50BF4FFE01ED50FF4F8081918138
:10212000019711969C938E93FE01ED50FF4F808195
:1021300091810097D1F627C08E010D501F4FFE01EF
:10214000EB50FF4F60817181828193810E94490031
:10215000DC01CB01F80191838083DE01A151BF4FE7
:10216000FE01ED50FF4F808191818D939C93FE0184
:10217000E151FF4F808191810197F1F7FE01E1511B
:10218000FF4F9183808380E060E00E949A080E9464
:10219000C20983E990E00E947108FE01E551FF4FFA
:1021A00080E090E4ACE9B5E480839183A283B383BB
:1021B0008E0109511F4FFE01E551FF4F6081718172
:1021C0008281938120E030E84BE355E40E941F02B6
:1021D000DC01CB01F80180839183A283B383FE01EC
:1021E000E951FF4F608171818281938120E030E06D
:1021F00040E85FE30E947903882344F4FE01EB5139
:10220000FF4F81E090E09183808364C0FE01E9513B
:10221000FF4F608171818281938120E03FEF4FE722
:1022200057E40E94190318160CF043C0FE01E55153
:10223000FF4F608171818281938120E030E040E234
:1022400051E40E941F02DC01CB018E010B511F4F94
:10225000BC01CD010E944900DC01CB01F801918352
:1022600080831FC0FE01ED51FF4F8CE291E091830E
:102270008083FE01ED51FF4F808191810197F1F73D
:10228000FE01ED51FF4F91838083DE01AB51BF4FC3
:10229000FE01EB51FF4F80819181019711969C9334
:1022A0008E93FE01EB51FF4F808191810097D1F613
:1022B00028C08E010B511F4FFE01E951FF4F608175
:1022C0007181828193810E944900DC01CB01F80178
:1022D00091838083DE01AF51BF4FFE01EB51FF4F71
:1022E0008081918111969C938E93FE01EF51FF4F57
:1022F000808191810197F1F7FE01EF51FF4F9183AA
:102300008083FE01E25FFE4F10828BC1CE01895EA9
:102310009E4FFE01E25FFE4F61E041E020810E949E
:10232000BD08FE01E352FF4F80E090E0A6E9B3E470
:1023300080839183A283B3838E0107521F4FFE01D6
:10234000E352FF4F608171818281938120E030E808
:102350004BE355E40E941F02DC01CB01F8018083AE
:102360009183A283B383FE01E752FF4F60817181A5
:102370008281938120E030E040E85FE30E947903AE
:10238000882344F4FE01E952FF4F81E090E09183FD
:10239000808364C0FE01E752FF4F608171818281BA
:1023A000938120E03FEF4FE757E40E94190318168E
:1023B0000CF043C0FE01E352FF4F608171818281C6
:1023C000938120E030E040E251E40E941F02DC01F2
:1023D000CB018E0109521F4FBC01CD010E94490063
:1023E000DC01CB01F801918380831FC0FE01EB5219
:1023F000FF4F8CE291E091838083FE01EB52FF4F0F
:10240000808191810197F1F7FE01EB52FF4F91839B
:102410008083DE01A952BF4FFE01E952FF4F808148
:102420009181019711969C938E93FE01E952FF4F83
:10243000808191810097D1F627C08E0109521F4FEC
:10244000FE01E752FF4F60817181828193810E947A
:102450004900DC01CB01F80191838083DE01AD529C
:10246000BF4FFE01E952FF4F808191818D939C9374
:10247000FE01ED52FF4F808191810197F1F7FE013E
:10248000ED52FF4F918380830E94C209FE01E25FFB
:10249000FE4F8081282F2F5FCE01895C9E4F62E026
:1024A00041E00E94BD08FE01E153FF4F80E090E053
:1024B000A6E9B3E480839183A283B3838E0105539D
:1024C0001F4FFE01E153FF4F608171818281938133
:1024D00020E030E84BE355E40E941F02DC01CB0111
:1024E000F80180839183A283B383FE01E553FF4FFC
:1024F000608171818281938120E030E040E85FE378
:102500000E947903882344F4FE01E753FF4F81E0E2
:1025100090E09183808364C0FE01E553FF4F6081AA
:1025200071818281938120E03FEF4FE757E40E9461
:10253000190318160CF043C0FE01E153FF4F6081F0
:1025400071818281938120E030E040E251E40E9479
:102550001F02DC01CB018E0107531F4FBC01CD01CF
:102560000E944900DC01CB01F801918380831FC0E8
:10257000FE01E953FF4F8CE291E091838083FE01DD
:10258000E953FF4F808191810197F1F7FE01E953F3
:10259000FF4F91838083DE01A753BF4FFE01E753B6
:1025A000FF4F80819181019711969C938E93FE013C
:1025B000E753FF4F808191810097D1F627C08E01AC
:1025C00007531F4FFE01E553FF4F608171818281E8
:1025D00093810E944900DC01CB01F8019183808343
:1025E000DE01AB53BF4FFE01E753FF4F8081918166
:1025F0008D939C93FE01EB53FF4F80819181019756
:10260000F1F7FE01EB53FF4F918380830E94C209D3
:10261000DE01A25FBE4FFE01E25FFE4F80818E5F52
:102620008C93FE01E25FFE4F8081803108F46ECE14
:1026300080E060E00E949A088DE990E00E947108B5
:10264000FE01EF53FF4F80E090E0AAE7B4E48083FF
:102650009183A283B3838E0103541F4FFE01EF5376
:10266000FF4F608171818281938120E030E84BE3EC
:1026700055E40E941F02DC01CB01F80180839183A5
:10268000A283B383FE01E354FF4F60817181828195
:10269000938120E030E040E85FE30E9479038823E3
:1026A00044F4FE01E554FF4F81E090E09183808384
:1026B00064C0FE01E354FF4F608171818281938188
:1026C00020E03FEF4FE757E40E94190318160CF083
:1026D00043C0FE01EF53FF4F60817181828193817E
:1026E00020E030E040E251E40E941F02DC01CB0117
:1026F0008E0105541F4FBC01CD010E944900DC0131
:10270000CB01F801918380831FC0FE01E754FF4F86
:102710008CE291E091838083FE01E754FF4F80813A
:1027200091810197F1F7FE01E754FF4F9183808378
:10273000DE01A554BF4FFE01E554FF4F808191811A
:10274000019711969C938E93FE01E554FF4F808173
:1027500091810097D1F627C08E0105541F4FFE01CD
:10276000E354FF4F60817181828193810E9449000F
:10277000DC01CB01F80191838083DE01A954BF4FB6
:10278000FE01E554FF4F808191818D939C93FE0162
:10279000E954FF4F808191810197F1F7FE01E954DF
:1027A000FF4F918380830E94C2090E94C209FE01EB
:1027B000E35FFE4F108283C1CE01895E9E4F61E0D0
:1027C00041E02FE00E94BD08FE01ED54FF4F80E084
:1027D00090E0AAEFB3E480839183A283B3838E0158
:1027E00001551F4FFE01ED54FF4F608171818281C1
:1027F000938120E030E84BE355E40E941F02DC01A6
:10280000CB01F80180839183A283B383FE01E1555C
:10281000FF4F608171818281938120E030E040E848
:102820005FE30E947903882344F4FE01E355FF4FE0
:1028300081E090E09183808364C0FE01E155FF4F09
:10284000608171818281938120E03FEF4FE757E4FF
:102850000E94190318160CF043C0FE01ED54FF4FFF
:10286000608171818281938120E030E040E251E417
:102870000E941F02DC01CB018E0103551F4FBC01DA
:10288000CD010E944900DC01CB01F80191838083D6
:102890001FC0FE01E555FF4F8CE291E091838083DC
:1028A000FE01E555FF4F808191810197F1F7FE010F
:1028B000E555FF4F91838083DE01A355BF4FFE0195
:1028C000E355FF4F80819181019711969C938E93E0
:1028D000FE01E355FF4F808191810097D1F627C01B
:1028E0008E0103551F4FFE01E155FF4F608171813D
:1028F000828193810E944900DC01CB01F801918320
:102900008083DE01A755BF4FFE01E355FF4F808155
:1029100091818D939C93FE01E755FF4F80819181BA
:102920000197F1F7FE01E755FF4F918380830E94E5
:10293000C209CE01815F9E4F60E041E02FE00E941E
:10294000BD08FE01EB55FF4F80E090E0AAEFB3E435
:1029500080839183A283B3838E010F551F4FFE01A5
:10296000EB55FF4F608171818281938120E030E8D7
:102970004BE355E40E941F02DC01CB01F801808388
:102980009183A283B383FE01EF55FF4F6081718174
:102990008281938120E030E040E85FE30E94790388
:1029A000882344F4FE01E156FF4F81E090E09183DB
:1029B000808364C0FE01EF55FF4F60817181828189
:1029C000938120E03FEF4FE757E40E941903181668
:1029D0000CF043C0FE01EB55FF4F60817181828195
:1029E000938120E030E040E251E40E941F02DC01CC
:1029F000CB018E0101561F4FBC01CD010E94490041
:102A0000DC01CB01F801918380831FC0FE01E356F6
:102A1000FF4F8CE291E091838083FE01E356FF4FEC
:102A2000808191810197F1F7FE01E356FF4F918379
:102A30008083DE01A156BF4FFE01E156FF4F80812A
:102A40009181019711969C938E93FE01E156FF4F61
:102A5000808191810097D1F627C08E0101561F4FCA
:102A6000FE01EF55FF4F60817181828193810E9449
:102A70004900DC01CB01F80191838083DE01A5567A
:102A8000BF4FFE01E156FF4F808191818D939C9352
:102A9000FE01E556FF4F808191810197F1F7FE011C
:102AA000E556FF4F918380830E94C209DE01A35F38
:102AB000BE4FFE01E35FFE4F80818F5F8C93FE016E
:102AC000E35FFE4F8081883008F476CE80E060E0DE
:102AD0000E949A0889EA90E00E947108FE01E95676
:102AE000FF4F80E090E4ACE9B5E480839183A2835A
:102AF000B3838E010D561F4FFE01E956FF4F6081D3
:102B000071818281938120E030E84BE355E40E949B
:102B10001F02DC01CB01F80180839183A283B38380
:102B2000FE01ED56FF4F608171818281938120E02B
:102B300030E040E85FE30E947903882344F4FE011B
:102B4000EF56FF4F81E090E09183808364C0FE01E7
:102B5000ED56FF4F608171818281938120E03FEFCC
:102B60004FE757E40E94190318160CF043C0FE010A
:102B7000E956FF4F608171818281938120E030E0CE
:102B800040E251E40E941F02DC01CB018E010F568E
:102B90001F4FBC01CD010E944900DC01CB01F801AF
:102BA000918380831FC0FE01E157FF4F8CE291E0CB
:102BB00091838083FE01E157FF4F808191810197CE
:102BC000F1F7FE01E157FF4F91838083DE01AF569D
:102BD000BF4FFE01EF56FF4F808191810197119603
:102BE0009C938E93FE01EF56FF4F80819181009759
:102BF000D1F627C08E010F561F4FFE01ED56FF4F35
:102C000060817181828193810E944900DC01CB0146
:102C1000F80191838083DE01A357BF4FFE01EF5679
:102C2000FF4F808191818D939C93FE01E357FF4F6D
:102C3000808191810197F1F7FE01E357FF4F918366
:102C400080830E94C20980E060E00E949A0884ECC0
:102C500090E00E947108FE01E757FF4F80E090E48A
:102C6000ACE9B5E480839183A283B3838E010B57D3
:102C70001F4FFE01E757FF4F608171818281938171
:102C800020E030E84BE355E40E941F02DC01CB0159
:102C9000F80180839183A283B383FE01EB57FF4F3A
:102CA000608171818281938120E030E040E85FE3C0
:102CB0000E947903882344F4FE01ED57FF4F81E021
:102CC00090E09183808364C0FE01EB57FF4F6081E9
:102CD00071818281938120E03FEF4FE757E40E94AA
:102CE000190318160CF043C0FE01E757FF4F60812F
:102CF00071818281938120E030E040E251E40E94C2
:102D00001F02DC01CB018E010D571F4FBC01CD010D
:102D10000E944900DC01CB01F801918380831FC030
:102D2000FE01EF57FF4F8CE291E091838083FE011B
:102D3000EF57FF4F808191810197F1F7FE01EF5727
:102D4000FF4F91838083DE01AD57BF4FFE01ED57EA
:102D5000FF4F80819181019711969C938E93FE0184
:102D6000ED57FF4F808191810097D1F627C08E01EA
:102D70000D571F4FFE01EB57FF4F6081718182811C
:102D800093810E944900DC01CB01F801918380838B
:102D9000DE01A158BF4FFE01ED57FF4F80819181A9
:102DA0008D939C93FE01E158FF4F808191810197A3
:102DB000F1F7FE01E158FF4F918380830E94C20921
:102DC000FE01E45FFE4F108283C1CE01815C9E4F05
:102DD00063E041E02FE00E94BD08FE01E558FF4F8F
:102DE00080E090E0AAEFB3E480839183A283B38371
:102DF0008E0109581F4FFE01E558FF4F6081718118
:102E00008281938120E030E84BE355E40E941F0269
:102E1000DC01CB01F80180839183A283B383FE019F
:102E2000E958FF4F608171818281938120E030E019
:102E300040E85FE30E947903882344F4FE01EB58E5
:102E4000FF4F81E090E09183808364C0FE01E958E8
:102E5000FF4F608171818281938120E03FEF4FE7D6
:102E600057E40E94190318160CF043C0FE01E55800
:102E7000FF4F608171818281938120E030E040E2E8
:102E800051E40E941F02DC01CB018E010B581F4F41
:102E9000BC01CD010E944900DC01CB01F801918306
:102EA00080831FC0FE01ED58FF4F8CE291E09183BB
:102EB0008083FE01ED58FF4F808191810197F1F7EA
:102EC000FE01ED58FF4F91838083DE01AB58BF4F69
:102ED000FE01EB58FF4F80819181019711969C93E1
:102EE0008E93FE01EB58FF4F808191810097D1F6C0
:102EF00027C08E010B581F4FFE01E958FF4F60811C
:102F00007181828193810E944900DC01CB01F8012B
:102F100091838083DE01AF58BF4FFE01EB58FF4F16
:102F2000808191818D939C93FE01EF58FF4F8081AA
:102F300091810197F1F7FE01EF58FF4F9183808354
:102F40000E94C209CE01895B9E4F64E041E02FE000
:102F50000E94BD08FE01E359FF4F80E090E0AAEF18
:102F6000B3E480839183A283B3838E0107591F4FFB
:102F7000FE01E359FF4F608171818281938120E0DE
:102F800030E84BE355E40E941F02DC01CB01F8015D
:102F900080839183A283B383FE01E759FF4F608151
:102FA00071818281938120E030E040E85FE30E94FC
:102FB0007903882344F4FE01E959FF4F81E090E052
:102FC0009183808364C0FE01E759FF4F6081718166
:102FD0008281938120E03FEF4FE757E40E9419037D
:102FE00018160CF043C0FE01E359FF4F6081718158
:102FF0008281938120E030E040E251E40E941F0290
:10300000DC01CB018E0109591F4FBC01CD010E948B
:103010004900DC01CB01F801918380831FC0FE01D0
:10302000EB59FF4F8CE291E091838083FE01EB59D5
:10303000FF4F808191810197F1F7FE01EB59FF4F1E
:1030400091838083DE01A959BF4FFE01E959FF4FEB
:1030500080819181019711969C938E93FE01E9598D
:10306000FF4F808191810097D1F627C08E010959C9
:103070001F4FFE01E759FF4F60817181828193816B
:103080000E944900DC01CB01F80191838083DE01BD
:10309000AD59BF4FFE01E959FF4F808191818D935A
:1030A0009C93FE01ED59FF4F808191810197F1F7CB
:1030B000FE01ED59FF4F918380830E94C209DE011A
:1030C000A45FBE4FFE01E45FFE4F80818F5F8C9353
:1030D000FE01E45FFE4F8081883008F476CE8DEDEE
:1030E00090E00E947108FE01E15AFF4F80E090E4F9
:1030F000ACE9B5E480839183A283B3838E01055A42
:103100001F4FFE01E15AFF4F6081718182819381DF
:1031100020E030E84BE355E40E941F02DC01CB01C4
:10312000F80180839183A283B383FE01E55AFF4FA8
:10313000608171818281938120E030E040E85FE32B
:103140000E947903882344F4FE01E75AFF4F81E08F
:1031500090E09183808364C0FE01E55AFF4F608157
:1031600071818281938120E03FEF4FE757E40E9415
:10317000190318160CF043C0FE01E15AFF4F60819D
:1031800071818281938120E030E040E251E40E942D
:103190001F02DC01CB018E01075A1F4FBC01CD017C
:1031A0000E944900DC01CB01F801918380831FC09C
:1031B000FE01E95AFF4F8CE291E091838083FE018A
:1031C000E95AFF4F808191810197F1F7FE01E95A99
:1031D000FF4F91838083DE01A75ABF4FFE01E75A5C
:1031E000FF4F80819181019711969C938E93FE01F0
:1031F000E75AFF4F808191810097D1F627C08E0159
:10320000075A1F4FFE01E55AFF4F6081718182818D
:1032100093810E944900DC01CB01F80191838083F6
:10322000DE01AB5ABF4FFE01E75AFF4F808191810B
:103230008D939C93FE01EB5AFF4F80819181019702
:10324000F1F7FE01EB5AFF4F918380830E94C20980
:103250008DEF90E00E947108FE01EF5AFF4F80E071
:1032600090E4ACE9B5E480839183A283B3838E01BB
:10327000035B1F4FFE01EF5AFF4F60817181828116
:10328000938120E030E84BE355E40E941F02DC010B
:10329000CB01F80180839183A283B383FE01E35BBA
:1032A000FF4F608171818281938120E030E040E8AE
:1032B0005FE30E947903882344F4FE01E55BFF4F3E
:1032C00081E090E09183808364C0FE01E35BFF4F67
:1032D000608171818281938120E03FEF4FE757E465
:1032E0000E94190318160CF043C0FE01EF5AFF4F5D
:1032F000608171818281938120E030E040E251E47D
:103300000E941F02DC01CB018E01055B1F4FBC0137
:10331000CD010E944900DC01CB01F801918380833B
:103320001FC0FE01E75BFF4F8CE291E09183808339
:10333000FE01E75BFF4F808191810197F1F7FE016C
:10334000E75BFF4F91838083DE01A55BBF4FFE01EA
:10335000E55BFF4F80819181019711969C938E933D
:10336000FE01E55BFF4F808191810097D1F627C078
:103370008E01055B1F4FFE01E35BFF4F6081718192
:10338000828193810E944900DC01CB01F801918385
:103390008083DE01A95BBF4FFE01E55BFF4F8081AB
:1033A00091818D939C93FE01E95BFF4F8081918118
:1033B0000197F1F7FE01E95BFF4F918380830E9443
:1033C000C20984E191E00E947108FE01ED5BFF4FAC
:1033D00080E090E4ACE9B5E480839183A283B38379
:1033E0008E01015C1F4FFE01ED5BFF4F608171811B
:1033F0008281938120E030E84BE355E40E941F0274
:10340000DC01CB01F80180839183A283B383FE01A9
:10341000FF96608171818281938120E030E040E8F5
:103420005FE30E94790388232CF481E090E09EAF53
:103430008DAF46C0FE01FF966081718182819381CC
:1034400020E03FEF4FE757E40E941903181664F598
:10345000FE01ED5BFF4F608171818281938120E0ED
:1034600030E040E251E40E941F02DC01CB01BC01CC
:10347000CD010E944900DC01CB019EAF8DAF0FC092
:103480008CE291E09CAF8BAF8BAD9CAD0197F1F7D7
:103490009CAF8BAF8DAD9EAD01979EAF8DAF8DADC7
:1034A0009EAD009769F716C0FE01FF96608171819D
:1034B000828193810E944900DC01CB019EAF8DAFD8
:1034C0008DAD9EAD9AAF89AF89AD9AAD0197F1F7F9
:1034D0009AAF89AF0E94C20984E291E00E9471080C
:1034E00080E090E4ACE9B5E48DAB9EABAFABB8AF98
:1034F0006DA97EA98FA998AD20E030E84BE355E493
:103500000E941F02DC01CB0189AB9AABABABBCAB19
:1035100069A97AA98BA99CA920E030E040E85FE383
:103520000E94790388232CF481E090E098AB8FA768
:103530003FC069A97AA98BA99CA920E03FEF4FE77A
:1035400057E40E94190318164CF56DA97EA98FA99E
:1035500098AD20E030E040E251E40E941F02DC011F
:10356000CB01BC01CD010E944900DC01CB0198AB2D
:103570008FA70FC08CE291E09EA78DA78DA59EA579
:103580000197F1F79EA78DA78FA598A9019798ABF2
:103590008FA78FA598A9009769F714C069A97AA980
:1035A0008BA99CA90E944900DC01CB0198AB8FA795
:1035B0008FA598A99CA78BA78BA59CA50197F1F730
:1035C0009CA78BA70E94C209CE01815F9E4F60E03D
:1035D00041E02FE00E94BD08CE01815E9E4F65E074
:1035E00041E020E00E94BD08FE01E55FFE4F81E062
:1035F000808391C0CE01895D9E4FFE01E55FFE4F45
:1036000066E041E020810E94BD0880E090E0A6E9EC
:10361000B3E48FA398A7A9A7BAA76FA178A589A596
:103620009AA520E030E84BE355E40E941F02DC013C
:10363000CB018BA39CA3ADA3BEA36BA17CA18DA149
:103640009EA120E030E040E85FE30E9479038823F8
:103650002CF481E090E09AA389A33FC06BA17CA1E8
:103660008DA19EA120E03FEF4FE757E40E94190390
:1036700018164CF56FA178A589A59AA520E030E031
:1036800040E251E40E941F02DC01CB01BC01CD01EC
:103690000E944900DC01CB019AA389A30FC08CE2F0
:1036A00091E098A38F8F8F8D98A10197F1F798A340
:1036B0008F8F89A19AA101979AA389A389A19AA121
:1036C000009769F714C06BA17CA18DA19EA10E94F7
:1036D0004900DC01CB019AA389A389A19AA19E8FFD
:1036E0008D8F8D8D9E8D0197F1F79E8F8D8FFE01B1
:1036F000E55FFE4F81E060810E949A088FE391E0D0
:103700000E947108DE01A55FBE4FFE01E55FFE4F1E
:1037100080818F5F8C93FE01E55FFE4F80818F304B
:1037200008F468CFCE01815D9E4F67E041E02FE055
:103730000E94BD0880E060E00E949A0881E491E068
:103740000E94710880E090E4ACE9B5E4898F9A8F1B
:10375000AB8FBC8F698D7A8D8B8D9C8D20E030E88E
:103760004BE355E40E941F02DC01CB018D8B9E8B45
:10377000AF8BB88F6D897E898F89988D20E030E07E
:1037800040E85FE30E94790388232CF481E090E015
:103790009C8B8B8B3FC06D897E898F89988D20E0B3
:1037A0003FEF4FE757E40E94190318164CF5698D57
:1037B0007A8D8B8D9C8D20E030E040E251E40E94B8
:1037C0001F02DC01CB01BC01CD010E944900DC01DC
:1037D000CB019C8B8B8B0FC08CE291E09A8B898BF9
:1037E00089899A890197F1F79A8B898B8B899C89B2
:1037F00001979C8B8B8B8B899C89009769F714C0F0
:103800006D897E898F89988D0E944900DC01CB01EA
:103810009C8B8B8B8B899C89988B8F878F859889C4
:103820000197F1F7988B8F8780E060E00E949A08FB
:1038300089E491E00E94710880E090E4ACE9B5E48D
:103840008B879C87AD87BE876B857C858D859E85A4
:1038500020E030E84BE355E40E941F02DC01CB017D
:103860008F839887A987BA876F81788589859A859C
:1038700020E030E040E85FE30E94790388232CF4E5
:1038800081E090E09E838D833FC06F81788589853C
:103890009A8520E03FEF4FE757E40E94190318167E
:1038A0004CF56B857C858D859E8520E030E040E27F
:1038B00051E40E941F02DC01CB01BC01CD010E943A
:1038C0004900DC01CB019E838D830FC08CE291E027
:1038D0009C838B838B819C810197F1F79C838B83E5
:1038E0008D819E8101979E838D838D819E8100971E
:1038F00069F714C06F81788589859A850E9449008F
:10390000DC01CB019E838D838D819E819A83898387
:1039100089819A810197F1F79A83898380E060E039
:103920000E949A088AE591E00E947108CA58DE4F09
:103930000FB6F894DEBF0FBECDBFCF91DF911F91C0
:103940000F910895629FD001739FF001829FE00D57
:10395000F11D649FE00DF11D929FF00D839FF00D0E
:10396000749FF00D659FF00D9927729FB00DE11DBA
:10397000F91F639FB00DE11DF91FBD01CF01112497
:103980000895A1E21A2EAA1BBB1BFD010DC0AA1FA0
:10399000BB1FEE1FFF1FA217B307E407F50720F0B8
:1039A000A21BB30BE40BF50B661F771F881F991F33
:1039B0001A9469F760957095809590959B01AC017C
:1039C000BD01CF0108952F923F924F925F926F9267
:1039D0007F928F929F92AF92BF92CF92DF92EF929F
:1039E000FF920F931F93CF93DF93CDB7DEB7CA1B20
:1039F000DB0B0FB6F894DEBF0FBECDBF09942A884B
:103A0000398848885F846E847D848C849B84AA84F2
:103A1000B984C884DF80EE80FD800C811B81AA817F
:103A2000B981CE0FD11D0FB6F894DEBF0FBECDBF4A
:083A3000ED010895F894FFCFA9
:103A380048656C6C6F2120596F752079657320205B
:103A4800796F75004920616D204D72205020492002
:103A580063616E20646F206D616E79207468696E91
:103A6800677300492063616E2072756E0049206398
:103A7800616E2064616E636500616E6420636572C7
:103A88007461696E6C79202020756E6C696B652095
:103A9800796F7500492063616E20706C6179202010
:103AA80020202020666F6F7462616C6C004920775B
:103AB8006F756C64206C696B6520746F2074656C1D
:103AC8006C20796F7520612066616374006C696B86
:103AD800652074686520656E64696E67206F66206E
:103AE800414F54006C6574206D652074656C6C20C2
:103AF800796F750057616974207768617420617205
:103B080065202020796F7520646F696E6721002019
:103B1800004D59204845414400484F5720414D2009
:103B2800492054414C4B494E4700434F4445204D92
:103B38004520412048454144202000000000000065
:103B48000000000102030405060708090A0B0C0D12
:103B58000E0F1000010203040506070E1F0E150EB6
:103B6800140A120E1F0E150E041A120E1F0E041F31
:103B7800041F00000000041F040A0A040E040000C9
:103B88000000001F1F1F18180000000E1F0E150E42
:0C3B9800040A110E1F0E041F040A0A008C
:00000001FF
