:100000000C942A000C9447000C9447000C94470071
:100010000C9447000C9447000C9447000C94470044
:100020000C9447000C9447000C94EC030C941F04B0
:100030000C9447000C9447000C9447000C94470024
:100040000C9447000C9447000C9447000C94470014
:100050000C94470011241FBECFE5D8E0DEBFCDBF12
:1000600010E0A0E6B0E0E6EDF9E002C005900D92E8
:10007000AC36B107D9F710E0ACE6B0E001C01D9294
:10008000A237B107E1F70E945C040C94E9040C94D8
:100090000000DF93CF93CDB7DEB728970FB6F89463
:1000A000DEBF0FBECDBF8A836B834C8319828B81E9
:1000B000883008F0EDC08C81882309F472C08A81F1
:1000C000282F30E038872F838F81988581309105E4
:1000D00049F12F813885223031052CF48F819885A4
:1000E000009761F05BC02F8138852230310571F1B6
:1000F0008F81988583309105E9F150C0ABE3B0E082
:10010000EBE3F0E08081482F8B81282F30E081E005
:1001100090E0022E02C0880F991F0A94E2F7842B08
:100120008C93B8C0A8E3B0E0E8E3F0E08081482F0A
:100130008B81282F30E081E090E0022E02C0880FF2
:10014000991F0A94E2F7842B8C93A4C0A5E3B0E036
:10015000E5E3F0E08081482F8B81282F30E081E0BB
:1001600090E0022E02C0880F991F0A94E2F7842BB8
:100170008C9390C0A2E3B0E0E2E3F0E08081482FEE
:100180008B81282F30E081E090E0022E02C0880FA2
:10019000991F0A94E2F7842B8C937CC081E08983B9
:1001A00079C08A81282F30E03E832D838D819E8106
:1001B0008130910559F12D813E81223031052CF499
:1001C0008D819E81009769F060C02D813E81223033
:1001D000310589F18D819E818330910509F440C0FC
:1001E00054C0ABE3B0E0EBE3F0E08081482F8B81BB
:1001F000282F30E081E090E0022E02C0880F991F86
:100200000A94E2F7809584238C9344C0A8E3B0E07D
:10021000E8E3F0E08081482F8B81282F30E081E0F7
:1002200090E0022E02C0880F991F0A94E2F7809591
:1002300084238C932FC0A5E3B0E0E5E3F0E0808158
:10024000482F8B81282F30E081E090E0022E02C001
:10025000880F991F0A94E2F7809584238C931AC023
:10026000A2E3B0E0E2E3F0E08081482F8B81282F09
:1002700030E081E090E0022E02C0880F991F0A94BE
:10028000E2F7809584238C9305C081E0898302C0C6
:1002900081E08983898128960FB6F894DEBF0FBE6E
:1002A000CDBFCF91DF910895DF93CF9300D000D0E1
:1002B0000F92CDB7DEB78A836B8319828A81282F8C
:1002C00030E03D832C838C819D8181309105D1F07C
:1002D0002C813D81223031052CF48C819D81009749
:1002E00061F01FC02C813D812230310581F08C816D
:1002F0009D818330910581F014C0EBE3F0E08B81A8
:10030000808311C0E8E3F0E08B8180830CC0E5E3DB
:10031000F0E08B81808307C0E2E3F0E08B81808393
:1003200002C081E0898389810F900F900F900F9018
:100330000F90CF91DF910895DF93CF93CDB7DEB7C4
:1003400027970FB6F894DEBF0FBECDBF8A836B83AD
:100350005D834C8319828C819D81009709F478C05C
:100360008B81883008F074C08A81282F30E03F8369
:100370002E834E815F814130510559F18E819F81DD
:100380008230910534F42E813F812115310569F0C9
:100390005CC04E815F814230510579F18E819F8131
:1003A0008330910509F43DC050C0E9E3F0E080815D
:1003B000282F30E08B81882F90E0A90102C055954D
:1003C00047958A95E2F7CA018170EC81FD818083AF
:1003D00041C0E6E3F0E08081282F30E08B81882F58
:1003E00090E0A90102C0559547958A95E2F7CA01A8
:1003F0008170EC81FD8180832DC0E3E3F0E080819A
:10040000282F30E08B81882F90E0A90102C05595FC
:1004100047958A95E2F7CA018170EC81FD8180835E
:1004200019C0E0E3F0E08081282F30E08B81882F35
:1004300090E0A90102C0559547958A95E2F7CA0157
:100440008170EC81FD81808305C081E0898302C0D9
:1004500081E08983898127960FB6F894DEBF0FBEAD
:10046000CDBFCF91DF910895DF93CF9300D000D01F
:1004700000D0CDB7DEB78A837C836B8319828A81F3
:10048000282F30E03E832D838D819E818130910520
:10049000E1F02D813E81223031052CF48D819E8149
:1004A000009761F027C02D813E8122303105A1F0F7
:1004B0008D819E8183309105B1F01CC0E9E3F0E0AD
:1004C0008081EB81FC81808317C0E6E3F0E08081CE
:1004D000EB81FC81808310C0E3E3F0E08081EB815D
:1004E000FC81808309C0E0E3F0E08081EB81FC8146
:1004F000808302C081E08983898126960FB6F894B3
:10050000DEBF0FBECDBFCF91DF910895DF93CF93B4
:10051000CDB7DEB7AFE5B0E0EFE5F0E08081806811
:100520008C93CF91DF910895DF93CF93CDB7DEB752
:10053000AFE5B0E0EFE5F0E080818F778C93CF916D
:10054000DF910895DF93CF93CDB7DEB7EAE3F0E014
:1005500080EF8083E7E3F0E08FEF8083E4E3F0E077
:1005600087E08083E1E3F0E083EF8083EBE3F0E07A
:100570008FEF8083E8E3F0E087E08083E5E3F0E05D
:100580001082E2E3F0E08CE08083CF91DF91089568
:10059000DF93CF93CDB7DEB7A3E5B0E0E3E5F0E0BE
:1005A000808188608C93A3E5B0E0E3E5F0E0808192
:1005B0008F7B8C93A9E5B0E0E9E5F0E080818D7F49
:1005C0008C93A3E5B0E0E3E5F0E080818F7C8C9331
:1005D000A3E5B0E0E3E5F0E080818C93CF91DF917B
:1005E0000895DF93CF93CDB7DEB72F970FB6F8946A
:1005F000DEBF0FBECDBF8A874B875C876D877E8746
:10060000198680916000882319F484E089877FC06F
:10061000109260001D821E821F82188619821A8223
:100620001B821C82ECE5F0E08A858083A3E5B0E0C4
:10063000E3E5F0E08081887F8C93A3E5B0E0E3E51B
:10064000F0E0808184608C9389819A81AB81BC8148
:100650000196A11DB11D89839A83AB83BC830BC016
:100660008D819E81AF81B8850196A11DB11D8D83BD
:100670009E83AF83B887E8E5F0E080818695882F78
:1006800090E081709070009761F48D819E81AF81C0
:10069000B88580342BE492072CE4A20720E0B2074F
:1006A000F8F28D819E81AF81B88580342BE492076A
:1006B0002CE4A20720E0B20719F483E0898707C081
:1006C000A8E5B0E0E8E5F0E0808182608C932981C4
:1006D0003A814B815C818B859C85AD85BE852817D1
:1006E00039074A075B0708F4AFCFA3E5B0E0E3E5BD
:1006F000F0E08081887F8C93A3E5B0E0E3E5F0E053
:1007000080818C9381E08093600089858F878F85BD
:100710002F960FB6F894DEBF0FBECDBFCF91DF91FD
:100720000895DF93CF930F92CDB7DEB78983A3E50A
:10073000B0E0E3E5F0E0808188608C93A3E5B0E071
:10074000E3E5F0E080818F7B8C93ECE5F0E089813C
:100750008083A9E5B0E0E9E5F0E0808182608C93D8
:10076000A3E5B0E0E3E5F0E080818F7C8C93A3E526
:10077000B0E0E3E5F0E080818C93A3E5B0E0E3E551
:10078000F0E08081887F8C93A3E5B0E0E3E5F0E0C2
:10079000808184608C930F90CF91DF910895DF93D7
:1007A000CF9300D00F92CDB7DEB79B838A83198297
:1007B0008A819B81009739F08A819B8190936D009B
:1007C00080936C0002C082E0898389810F900F9032
:1007D0000F90CF91DF9108951F920F920FB60F9255
:1007E00011242F933F934F935F936F937F938F9336
:1007F0009F93AF93BF93EF93FF93DF93CF93CDB7C7
:10080000DEB780916C0090916D00009729F0E09127
:100810006C00F0916D000995CF91DF91FF91EF9100
:10082000BF91AF919F918F917F916F915F914F9108
:100830003F912F910F900FBE0F901F9018951F9210
:100840000F920FB60F9211242F933F934F935F9304
:100850006F937F938F939F93AF93BF93EF93FF9388
:10086000DF93CF93CDB7DEB780916C0090916D0090
:10087000009729F0E0916C00F0916D000995CF91FF
:10088000DF91FF91EF91BF91AF919F918F917F91F8
:100890006F915F914F913F912F910F900FBE0F90ED
:1008A0001F901895DF93CF930F92CDB7DEB7898352
:1008B0000F90CF91DF910895DF93CF93CDB7DEB73F
:1008C0000E94A2020E9486028DE694E00E94CF035D
:1008D000809169000E949103FFCFDF93CF93CDB742
:1008E000DEB781E063E041E00E94490080916E0044
:1008F00090916F00A0917000B09171000196A11DC0
:10090000B11D80936E0090936F00A0937000B09320
:10091000710080916E0090916F00A0917000B09175
:10092000710085309105A105B10531F481E060E0E9
:1009300040E00E9449004AC080916E0090916F0093
:10094000A0917000B09171008A309105A105B105A8
:1009500031F481E061E040E00E94490037C08091BD
:100960006E0090916F00A0917000B09171008F3077
:100970009105A105B10531F481E062E040E00E94FB
:10098000490024C080916E0090916F00A09170008A
:10099000B091710084319105A105B105B9F481E0F0
:1009A00060E041E00E94490081E061E041E00E9496
:1009B000490081E062E041E00E94490010926E002F
:1009C00010926F001092700010927100CF91DF9121
:0609D0000895F894FFCF2A
:0C09D600010500000030070000BCE50037
:00000001FF
